:020000040800F2
:100000000028002031170008E9130008EF1300084A
:10001000F5130008FB13000801140008000000009D
:1000200000000000000000000000000007140008AD
:1000300013140008000000001F1400082B1400080F
:100040007917000879170008791700087917000850
:100050007917000879170008791700087917000840
:100060007917000879170008791700087917000830
:100070007917000879170008791700087917000820
:100080007917000879170008791700087917000810
:100090007917000879170008791700087917000800
:1000A00079170008791700087917000879170008F0
:1000B00039140008791700080000000079170008BB
:1000C0007917000800000000000000007917000800
:1000D00000000000791700087917000800000000F0
:1000E0007917000879170008791700080000000048
:1000F0000000000000000000000000000000000000
:0C01000000000000000000005FF808F1A3
:10010C0010B5054C237833B9044B13B10448AFF345
:10011C0000800123237010BD680000200000000047
:10012C00A82D000808B5034B1BB103490348AFF3D6
:10013C00008008BD000000006C000020A82D000805
:10014C0080B483B000AF7860094A7B6852F82330E2
:10015C00012B06D1064A7B68002142F823100123AB
:10016C0000E0002318460C37BD4680BC704700BF2A
:10017C008400002080B582B000AF00237B6022E1B8
:10018C00954A7B6852F8232094497B6841F82320D8
:10019C00934A7B6852F823208F497B6841F82320CF
:1001AC007B68002B5AD110218E4801F0CBFD034601
:1001BC0019468B4A7B6842F82310884A7B6852F8B0
:1001CC00232085497B6851F823309A4240F0F8800F
:1001DC00814A7B6852F8232081497B6851F823308F
:1001EC009A4240F0ED80804A7B6852F823207C498B
:1001FC007B6851F823309A4217D0794A7B6852F8C1
:10020C00232079497B6841F82320754A7B6852F892
:10021C002330002B40F0D480744A7B68012142F8D3
:10022C002310734BC8221A60CAE0714B1B68013B48
:10023C006F4A13606E4B1B68002B40F0C180684AFC
:10024C007B6852F82330002B04D1674A7B6801216C
:10025C0042F82310664BC8221A60B1E07B68012B70
:10026C0058D120215F4801F06DFD034619465C4AC8
:10027C007B6842F82310594A7B6852F82320564970
:10028C007B6851F823309A4240F09A80524A7B683E
:10029C0052F8232052497B6851F823309A4240F09F
:1002AC008F80514A7B6852F823204D497B6851F866
:1002BC0023309A4216D04A4A7B6852F823204A4986
:1002CC007B6841F82320464A7B6852F82330002B88
:1002DC0076D1464A7B68012142F82310444BC82250
:1002EC001A606DE0424B1B68013B414A1360404B66
:1002FC001B68002B64D13A4A7B6852F82330002BE0
:10030C0004D1394A7B68012142F82310384BC822AA
:10031C001A6055E04021334801F014FD034619469C
:10032C002F4A7B6842F823102C4A7B6852F8232012
:10033C0029497B6851F823309A4241D1264A7B687F
:10034C0052F8232026497B6851F823309A4237D142
:10035C00254A7B6852F8232021497B6851F82330C9
:10036C009A4216D01E4A7B6852F823201E497B689D
:10037C0041F823201A4A7B6852F82330002B1FD1F6
:10038C001A4A7B68012142F82310194BC8221A60C3
:10039C0016E0174B1B68013B154A1360144B1B6886
:1003AC00002B0DD10E4A7B6852F82330002B04D160
:1003BC000D4A7B68012142F823100D4BC8221A60AC
:1003CC007B6801337B607B68022B7FF7D9AE00BF63
:1003DC0000BF0837BD4680BD0C0000200000002087
:1003EC001800002000080140240000208400002098
:1003FC003000002080B500AF9C4B1B68162B40F0E2
:10040C002A819B4B1A689B4B1B681A449A4B1B689E
:10041C009A4208D0984B05221A60954B02221A601A
:10042C00944B03221A60954B1B68013B032B7DD820
:10043C0001A252F823F000BF550400087304000811
:10044C00F7040008B504000801F000F88B4B0222F9
:10045C001A60894B1B688A4A13604FF47A71022028
:10046C0000F016FF69E001F021F8162000F08EFC78
:10047C0000F044FD834B9B68012B59D14FF47A71EA
:10048C00022000F005FF7E4B1B68013B7C4A136089
:10049C007B4B1B68002B4BDC764B1B68784A13603C
:1004AC00764B04221A6043E001F060F8162000F04D
:1004BC006DFC00F023FD734B9B68012B3AD14FF47C
:1004CC007A71022000F0E4FE6D4B1B68013B6C4A14
:1004DC0013606B4B1B68002B2CDC654B1B68684A4C
:1004EC001360664B03221A6024E001F00FF816200B
:1004FC0000F04CFC00F002FD624B9B68012B1BD101
:10050C004FF47A71022000F0C3FE5D4B1B68013B77
:10051C005B4A13605A4B1B68002B0DDC564B1B6857
:10052C00574A1360554B02221A6005E000BF04E0E5
:10053C0000BF02E000BF00E000BF534B1B68013B53
:10054C00062B00F28A8001A252F823F075050008F0
:10055C006706000867060008670600089D05000886
:10056C0021060008DF05000800F088FF162000F0C7
:10057C000DFC00F0C3FC444B07221A603D4B1B687A
:10058C00424A13604FF47A71032000F081FE6BE055
:10059C0000F0A4FF162000F0F9FB00F0AFFC394B83
:1005AC00DB68012B5BD14FF47A71032000F070FEF5
:1005BC00364B1B68013B354A1360344B1B68002BD0
:1005CC004DDC2C4B1B68314A13602F4B07221A60F1
:1005DC0045E000F0E3FF162000F0D8FB00F08EFCA5
:1005EC00284BDB68012B3CD14FF47A71032000F0CF
:1005FC004FFE264B1B68013B244A1360234B1B68A0
:10060C00002B2EDC1A4B1B68204A13601E4B062253
:10061C001A6026E000F092FF162000F0B7FB00F005
:10062C006DFC184BDB68012B1DD14FF47A71032044
:10063C0000F02EFE154B1B68013B144A1360134B44
:10064C001B68002B0FDC0C4B1B68104A13600E4B05
:10065C0005221A6007E000BF06E000BF04E000BFFF
:10066C0002E000BF00E000BF80BD00BF40000020E2
:10067C00500000204C0000204800002034000020D6
:10068C0054000020BC00002038000020580000203E
:10069C0080B500AF334B1B68192B3ED0192B58DC9F
:1006AC00172B02D0182B1CD053E0282000F0D4FFBD
:1006BC002C4B1B68184600F069FB00F01FFC012056
:1006CC00FFF73EFD0346002B45D0274B1B68622BE2
:1006DC0003DC254B1B68013300E00123224A136025
:1006EC0039E0292000F0B8FF1E4B1B68184600F0BB
:1006FC004DFB00F003FC0120FFF722FD0346002B0D
:10070C002BD0194B1B68622B03DC174B1B68013376
:10071C0000E00123144A13601FE02A2000F09CFF24
:10072C00104B1B68184600F031FB00F0E7FB012072
:10073C00FFF706FD0346002B11D00B4B1B68622BF9
:10074C0003DC094B1B68013300E00123064A1360EC
:10075C0005E000BF04E000BF02E000BF00E000BF06
:10076C0000BF80BD40000020A000002080B500AF7D
:10077C005A4B1B68013B182B00F2A48001A252F8C3
:10078C0023F000BFF5070008D1080008D1080008C5
:10079C00D1080008D1080008D1080008D1080008C9
:1007AC00D1080008D1080008D1080008D1080008B9
:1007BC00D1080008D1080008D1080008D1080008A9
:1007CC00D1080008D1080008D1080008D108000899
:1007DC00D1080008D1080008FD0700081F08000810
:1007EC00570800088F0800083C4B16221A6072E06C
:1007FC000020FFF7A5FC0346002B65D0374B1722D2
:10080C001A60374B1B68374A1360374B01221A604A
:10081C005AE00020FFF794FC0346002B0AD02F4B24
:10082C0018221A60314B1B682E4A13602E4B012282
:10083C001A604BE00220FFF783FC0346002B45D0E7
:10084C00284B1B68264A136040E00020FFF778FC19
:10085C000346002B0AD0214B19221A60244B1B682B
:10086C00204A1360204B01221A6031E00220FFF76E
:10087C0067FC0346002B2BD01A4B1B681B4A1360DA
:10088C0026E00020FFF75CFC0346002B0FD0134B37
:10089C0016221A60174B01221A60174B01221A609C
:1008AC00164B01221A60104B01221A6012E0022032
:1008BC00FFF746FC0346002B0CD00A4B1B680C4A76
:1008CC00136007E000BF06E000BF04E000BF02E0D9
:1008DC0000BF00E000BF00BF80BD00BF4000002093
:1008EC0048000020A0000020440000205000002000
:1008FC004C00002034000020380000203C00002078
:10090C0080B582B000AF78607B68092B00F29E81C5
:10091C0001A252F823F000BF4D0900089B09000802
:10092C00E9090008370A0008850A0008D30A0008FC
:10093C00210B00086F0B0008BD0B00080B0C000806
:10094C0000224FF40051C44801F013FA00224FF476
:10095C008041C14801F00DFA00224FF40041BE481D
:10096C0001F007FA00220121BC4801F002FA002232
:10097C000221BA4801F0FDF900220421B74801F028
:10098C00F8F901220821B54801F0F3F95FE10122E1
:10099C004FF40051B04801F0ECF900224FF48041C3
:1009AC00AD4801F0E6F900224FF40041AA4801F0ED
:1009BC00E0F901220121A94801F0DBF90122022111
:1009CC00A64801F0D6F901220421A44801F0D1F97E
:1009DC0001220821A14801F0CCF938E100224FF4A2
:1009EC0000519D4801F0C5F900224FF480419A480E
:1009FC0001F0BFF901224FF40041974801F0B9F919
:100A0C0000220121954801F0B4F9002202219348FB
:100A1C0001F0AFF901220421904801F0AAF900225B
:100A2C0008218E4801F0A5F911E100224FF4005184
:100A3C00894801F09EF900224FF48041864801F06C
:100A4C0098F900224FF40041834801F092F90022FA
:100A5C000121824801F08DF9012202217F4801F029
:100A6C0088F9012204217D4801F083F90022082134
:100A7C007A4801F07EF9EAE001224FF40051764801
:100A8C0001F077F900224FF48041734801F071F9BD
:100A9C0000224FF40041704801F06BF90122012152
:100AAC006E4801F066F9012202216C4801F061F9EF
:100ABC0000220421694801F05CF9002208216748F2
:100ACC0001F057F9C3E000224FF40051624801F0E5
:100ADC0050F901224FF480415F4801F04AF900229D
:100AEC004FF400415C4801F044F9002201215B48BD
:100AFC0001F03FF901220221584801F03AF9002295
:100B0C000421564801F035F900220821534801F020
:100B1C0030F99CE000224FF400514F4801F029F9C4
:100B2C0001224FF480414C4801F023F900224FF48C
:100B3C000041494801F01DF900220121474801F00C
:100B4C0018F900220221454801F013F90022042172
:100B5C00424801F00EF900220821404801F009F941
:100B6C0075E000224FF400513B4801F002F90022DD
:100B7C004FF48041384801F0FCF800224FF400415A
:100B8C00354801F0F6F801220121344801F0F1F862
:100B9C0001220221314801F0ECF8012204212F48F6
:100BAC0001F0E7F8012208212C4801F0E2F84EE0B0
:100BBC0000224FF40051284801F0DBF800224FF4DA
:100BCC008041254801F0D5F800224FF4004122481D
:100BDC0001F0CFF800220121204801F0CAF80022D0
:100BEC0002211E4801F0C5F8002204211B4801F027
:100BFC00C0F800220821194801F0BBF827E00022B8
:100C0C004FF40051144801F0B4F800224FF4804125
:100C1C00114801F0AEF800224FF400410E4801F0EB
:100C2C00A8F8002201210D4801F0A3F801220221AD
:100C3C000A4801F09EF800220421084801F099F8B6
:100C4C0000220821054801F094F800E000BF00BF25
:100C5C000837BD4680BD00BF00080140000C0140B4
:100C6C0080B582B000AF78607B68032B00F2848083
:100C7C0001A252F823F000BF950C0008D10C00081B
:100C8C000D0D0008490D000800224FF480513D481D
:100C9C0001F06FF801224FF400513A4801F069F865
:100CAC0001224FF48041374801F063F801224FF4E0
:100CBC000041344801F05DF8334B1B681846FFF7D0
:100CCC001FFE5AE001224FF480512E4801F051F8DA
:100CDC0000224FF400512B4801F04BF801224FF445
:100CEC008041284801F045F801224FF40041254885
:100CFC0001F03FF8244B5B681846FFF701FE3CE01F
:100D0C0001224FF480511F4801F033F801224FF4B7
:100D1C0000511C4801F02DF800224FF48041194875
:100D2C0001F027F801224FF40041164801F021F898
:100D3C00154B9B681846FFF7E3FD1EE001224FF4AC
:100D4C008051104801F015F801224FF400510D4864
:100D5C0001F00FF801224FF480410A4801F009F824
:100D6C0000224FF40041074801F003F8064BDB6802
:100D7C001846FFF7C5FD00E000BF00BF0837BD46B1
:100D8C0080BD00BF000C01409000002080B483B0F7
:100D9C0000AF78607B68163B032B00F29E8001A2AB
:100DAC0052F823F0C10D0008270E0008670E00084A
:100DBC00A70E00084C4B1B684C4A82FB0312921086
:100DCC00DB17D31A4A4A1360474B1968474B83FB0E
:100DDC0001239A10CB17D21A13469B0013445B00C5
:100DEC00CA1A434B5A60434B1B68404A82FB03129E
:100DFC009210DB17D31A3E4A93603E4B19683B4B5B
:100E0C0083FB01239A10CB17D21A13469B00134471
:100E1C005B00CA1A364BDA6060E0374B1B68334A0A
:100E2C0082FB03129210DB17D31A314A1360324B38
:100E3C0019682E4B83FB01239A10CB17D21A134639
:100E4C009B0013445B00CA1A294B5A60284B0022A2
:100E5C009A60274B0222DA6040E0274B1B68234A3A
:100E6C0082FB03129210DB17D31A214A1360224B18
:100E7C0019681E4B83FB01239A10CB17D21A134609
:100E8C009B0013445B00CA1A194B5A60184B002282
:100E9C009A60174B0322DA6020E0174B1B68134A49
:100EAC0082FB03129210DB17D31A114A1360124BF8
:100EBC0019680E4B83FB01239A10CB17D21A1346D9
:100ECC009B0013445B00CA1A094B5A60084B002262
:100EDC009A60074B0422DA6000E000BF00BF0C37B9
:100EEC00BD4680BC704700BF540000206766666634
:100EFC009000002058000020A000002080B500AF1A
:100F0C004D4B1B68013B202B00F28A8001A252F84A
:100F1C0023F000BFA50F00082D1000082D100008AD
:100F2C002D1000082D1000082D1000082D100008A1
:100F3C002D1000082D1000082D1000082D10000891
:100F4C002D1000082D1000082D1000082D10000881
:100F5C002D1000082D1000082D1000082D10000871
:100F6C002D1000082D1000082D1000082D10000861
:100F7C002D1000082D1000082D1000082D10000851
:100F8C002D1000082D100008B50F0008D30F000815
:100F9C00F10F00080F100008274B1E221A60FA21CF
:100FAC00052000F075F944E00020FFF759FE234BB3
:100FBC005B69012B36D1FA21052000F069F91E4B33
:100FCC001F221A602EE00120FFF74AFE1B4B5B69C3
:100FDC00012B29D1FA21052000F05AF9164B2022B9
:100FEC001A6021E00220FFF73BFE144B5B69012BDA
:100FFC001CD1FA21052000F04BF90F4B21221A606D
:10100C0014E00320FFF72CFE0C4B5B69012B0FD176
:10101C00FA21052000F03CF9074B1E221A6007E06C
:10102C0000BF06E000BF04E000BF02E000BF00E02C
:10103C0000BF00BF80BD00BF3C000020BC000020F2
:10104C0080B500AF00F094FB00F026F800F0ACF88F
:10105C0000F05EF80D4801F0E9FA4FF4FA71002047
:10106C0000F016F90A4B1B68012B08D10221094824
:10107C0000F097FE4FF4FA71002000F009F9FFF729
:10108C0075FBFFF7B7F9FFF703FBEBE7D400002084
:10109C00BC0000200008014080B590B000AF07F103
:1010AC00180328220021184601F070FE3B1D002277
:1010BC001A605A609A60DA601A610223BB610123DC
:1010CC00BB621023FB6200237B6307F118031846F5
:1010DC0000F080FE0346002B01D000F0D3F80F2364
:1010EC007B600023BB600023FB6000233B6100237B
:1010FC007B613B1D0021184601F0ECF80346002BE8
:10110C0001D000F0BFF800BF4037BD4680BD0000E5
:10111C0080B586B000AF07F1080300221A605A6050
:10112C009A60DA603B4600221A605A601D4B4FF001
:10113C0080421A601B4B41F63F725A60194B0022D9
:10114C009A60184B0922DA60164B00221A61154B73
:10115C0000229A61134801F019FA0346002B01D0C2
:10116C0000F090F84FF48053BB6007F10803194668
:10117C000C4801F097FB0346002B01D000F082F8DD
:10118C0000233B6000237B603B461946054801F079
:10119C006FFD0346002B01D000F074F800BF183728
:1011AC00BD4680BDD400002080B586B000AF07F1ED
:1011BC00080300221A605A609A60DA60284B9B6917
:1011CC00274A43F004039361254B9B6903F0040306
:1011DC007B607B68224B9B69214A43F00803936137
:1011EC001F4B9B6903F008033B603B6800224FF6E2
:1011FC008E711C4800F0BDFD00224FF20F011A4801
:10120C0000F0B7FD4FF68E73BB600123FB6000232B
:10121C003B6102237B6107F108031946114800F07A
:10122C0017FC7023BB600023FB6001233B6107F1BB
:10123C00080319460B4800F00BFC4FF20F03BB6080
:10124C000123FB6000233B6102237B6107F1080350
:10125C001946054800F0FCFB00BF1837BD4680BDA1
:10126C000010024000080140000C014080B582B023
:10127C0000AF786000F02CF8FEF77CFF00BF083759
:10128C00BD4680BD80B400AF72B600BFFEE7000063
:10129C0080B483B000AF786039600A4A7B68002163
:1012AC0042F823103B68084A82FB03129210DB17AA
:1012BC00D21A06497B6841F8232000BF0C37BD4683
:1012CC0080BC7047BC00002067666666A4000020E6
:1012DC0080B483B000AF00237B601CE0124A7B68B3
:1012EC0052F82330002B13DD0F4A7B6852F8233061
:1012FC005A1E0D497B6841F823200B4A7B6852F833
:10130C002330002B04DC094A7B68012142F82310AE
:10131C007B6801337B607B68052BDFDD00BF00BF82
:10132C000C37BD4680BC7047A4000020BC000020D8
:10133C0080B485B000AF154B9B69144A43F0010390
:10134C009361124B9B6903F00103BB60BB680F4BAD
:10135C00DB690E4A43F08053D3610C4BDB6903F01D
:10136C0080537B607B680A4B5B68FB60FB6823F0F7
:10137C00E063FB60FB6843F08063FB60044AFB683E
:10138C00536000BF1437BD4680BC7047001002404C
:10139C000000014080B584B000AF78607B681B68AA
:1013AC00B3F1804F13D10C4BDB690B4A43F00103B3
:1013BC00D361094BDB6903F00103FB60FB6800227E
:1013CC0000211C2000F00DFB1C2000F026FB00BFB0
:1013DC001037BD4680BD00BF0010024080B400AF86
:1013EC00FEE780B400AFFEE780B400AFFEE780B448
:1013FC0000AFFEE780B400AFFEE780B400AF00BFE3
:10140C00BD4680BC704780B400AF00BFBD4680BCF9
:10141C00704780B400AF00BFBD4680BC704780B53C
:10142C0000AF00F0EBF900BF80BD000080B500AF4D
:10143C00024801F047F900BF80BD00BFD400002076
:10144C0080B400AF00BFBD4680BC704780B500AF14
:10145C0000228021084800F08CFC00224FF480719F
:10146C00054800F086FC00224FF40071024800F0A1
:10147C0080FC00BF80BD00BF0008014080B500AFFC
:10148C0000224FF48061084800F073FC00224FF4F6
:10149C000061054800F06DFC00224FF480510248B9
:1014AC0000F067FC00BF80BD0008014080B500AFB4
:1014BC0001228021084800F05CFC00224FF480716E
:1014CC00054800F056FC00224FF40071024800F071
:1014DC0050FC00BF80BD00BF0008014080B500AFCC
:1014EC0001224FF48061084800F043FC00224FF4C5
:1014FC000061054800F03DFC00224FF48051024889
:10150C0000F037FC00BF80BD0008014080B500AF83
:10151C0000228021084800F02CFC01224FF480713D
:10152C00054800F026FC00224FF40071024800F040
:10153C0020FC00BF80BD00BF0008014080B500AF9B
:10154C0000224FF48061084800F013FC01224FF494
:10155C000061054800F00DFC00224FF48051024858
:10156C0000F007FC00BF80BD0008014080B500AF53
:10157C0000228021084800F0FCFB00224FF480710F
:10158C00054800F0F6FB01224FF40071024800F010
:10159C00F0FB00BF80BD00BF0008014080B500AF6C
:1015AC0000224FF48061084800F0E3FB00224FF466
:1015BC000061054800F0DDFB01224FF48051024828
:1015CC0000F0D7FB00BF80BD0008014080B500AF24
:1015DC008021024800F0E5FB00BF80BD00080140FF
:1015EC0080B500AF4FF48061024800F0DAFB00BF19
:1015FC0080BD00BF0008014080B500AF4FF4807182
:10160C00024800F0CEFB00BF80BD00BF00080140C7
:10161C0080B500AF4FF40071024800F0C2FB00BF70
:10162C0080BD00BF0008014080B500AF4FF40061E1
:10163C00024800F0B6FB00BF80BD00BF00080140AF
:10164C0080B500AF4FF48051024800F0AAFB00BFF8
:10165C0080BD00BF0008014080B582B000AF78604B
:10166C002E4B1B682A2B3FD02A2B4ADC292B2ED041
:10167C00292B46DC012B02D0282B1BD041E0FFF795
:10168C00E5FEFFF7FBFEFA210420FFF701FE7B6865
:10169C00282B02D1214B28221A607B68292B02D1DE
:1016AC001E4B29221A607B682A2B2CD11B4B2A2219
:1016BC001A6028E01A4B1B69012B26D1FA21042051
:1016CC00FFF7E6FDFFF782FFFFF78AFF1DE0144BE3
:1016DC001B69012B1BD1FA210420FFF7D9FDFFF761
:1016EC008BFFFFF7A1FF12E00D4B1B69012B10D1F3
:1016FC00FA210420FFF7CCFDFFF78AFFFFF7A0FFCC
:10170C0007E000BF06E000BF04E000BF02E000BF3E
:10171C0000E000BF00BF0837BD4680BD440000207C
:10172C00BC000020FFF78CFE0B480C490C4A002330
:10173C0002E0D458C4500433C4188C42F9D3094A7B
:10174C00094C002301E013600432A242FBD301F0E8
:10175C00F9FAFFF775FC70470000002068000020C4
:10176C00EC2D00086800002020010020FEE700009E
:10177C0080B500AF084B1B68074A43F01003136099
:10178C00032000F023F90F2000F008F8FFF7D0FD3C
:10179C000023184680BD00BF0020024080B582B0F7
:1017AC0000AF7860124B1A68124B1B7819464FF435
:1017BC007A73B3FBF1F3B2FBF3F3184600F03BF989
:1017CC000346002B01D001230EE07B680F2B0AD8B7
:1017DC00002279684FF0FF3000F003F9064A7B686D
:1017EC001360002300E0012318460837BD4680BD76
:1017FC005C000020640000206000002080B400AF7A
:10180C00054B1B781A46054B1B681344034A13609F
:10181C0000BFBD4680BC7047640000201C01002046
:10182C0080B400AF024B1B681846BD4680BC7047A5
:10183C001C01002080B485B000AF78607B6803F099
:10184C000703FB600C4BDB68BB60BA684FF6FF0309
:10185C001340BB60FB681A02BB68134343F0BF63C1
:10186C0043F40033BB60044ABB68D36000BF143739
:10187C00BD4680BC704700BF00ED00E080B400AFF7
:10188C00044BDB681B0A03F007031846BD4680BCFB
:10189C00704700BF00ED00E080B483B000AF03469A
:1018AC00FB7197F90730002B0BDBFB7903F01F0260
:1018BC00064997F907305B09012000FA02F241F85A
:1018CC00232000BF0C37BD4680BC704700E100E010
:1018DC0080B483B000AF03463960FB7197F90730D1
:1018EC00002B0ADB3B68DAB20C4997F9073012017E
:1018FC00D2B20B4483F800230AE03B68DAB2084901
:10190C00FB7903F00F03043B1201D2B20B441A769D
:10191C0000BF0C37BD4680BC704700BF00E100E043
:10192C0000ED00E080B489B000AFF860B9607A6077
:10193C00FB6803F00703FB61FB69C3F10703042B8E
:10194C0028BF0423BB61FB690433062B02D9FB6956
:10195C00033B00E000237B614FF0FF32BB6902FACE
:10196C0003F3DA43BB681A407B699A404FF0FF31AE
:10197C007B6901FA03F3D9437B680B401343184688
:10198C002437BD4680BC704780B582B000AF78600C
:10199C007B68013BB3F1807F01D301230FE00A4A3E
:1019AC007B68013B53600F214FF0FF30FFF790FF36
:1019BC00054B00229A60044B07221A60002318463C
:1019CC000837BD4680BD00BF10E000E080B582B096
:1019DC0000AF78607868FFF72DFF00BF0837BD4671
:1019EC0080BD80B586B000AF0346B9607A60FB73EA
:1019FC0000237B61FFF742FF78617A68B9687869E8
:101A0C00FFF790FF024697F90F3011461846FFF783
:101A1C005FFF00BF1837BD4680BD80B582B000AFF8
:101A2C000346FB7197F907301846FFF735FF00BFE7
:101A3C000837BD4680BD80B582B000AF786078684D
:101A4C00FFF7A2FF034618460837BD4680BD0000CD
:101A5C0080B48BB000AF7860396000237B620023C8
:101A6C003B6248E101227B6A02FA03F3FB613B68AB
:101A7C001B68FA691340BB61BA69FB699A4240F072
:101A8C0037813B685B68A34A93425ED0A14A93427C
:101A9C0075D8A14A934258D09F4A93426FD89F4A17
:101AAC00934252D09D4A934269D89D4A93424CD05E
:101ABC009B4A934263D89B4A934246D0994A93429D
:101ACC005DD8122B2AD8122B59D801A252F823F028
:101ADC00571B0008311B0008431B0008851B00081E
:101AEC008B1B00088B1B00088B1B00088B1B000832
:101AFC008B1B00088B1B00088B1B00088B1B000822
:101B0C008B1B00088B1B00088B1B00088B1B000811
:101B1C008B1B0008391B00084D1B0008824A93429E
:101B2C0013D02CE03B68DB683B6229E03B68DB6848
:101B3C0004333B6224E03B68DB6808333B621FE004
:101B4C003B68DB680C333B621AE03B689B68002BFC
:101B5C0002D104233B6213E03B689B68012B05D147
:101B6C0008233B627B68FA691A6109E008233B622F
:101B7C007B68FA695A6103E000233B6200E000BF16
:101B8C00BB69FF2B01D87B6801E07B6804337B6168
:101B9C00BB69FF2B02D87B6A9B0002E07B6A083B87
:101BAC009B003B617B691A680F213B6901FA03F3C7
:101BBC00DB431A40396A3B6901FA03F31A437B6928
:101BCC001A603B685B6803F08053002B00F0908038
:101BDC00564B9B69554A43F001039361534B9B69E8
:101BEC0003F00103BB60BB68514A7B6A9B0802335C
:101BFC0052F82330FB607B6A03F003039B000F2237
:101C0C0002FA03F3DB43FA681340FB607B68494A32
:101C1C0093420DD07B68484A934207D07B68474A71
:101C2C00934201D1022304E0032302E0012300E0EC
:101C3C0000237A6A02F0030292009340FA6813437D
:101C4C00FB603B497B6A9B080233FA6841F823200E
:101C5C003B685B6803F48013002B06D0384B9A6802
:101C6C003749BB6913438B6006E0354B9A68BB69F7
:101C7C00DB43334913408B603B685B6803F4001310
:101C8C00002B06D02E4BDA682D49BB691343CB6071
:101C9C0006E02B4BDA68BB69DB4329491340CB6068
:101CAC003B685B6803F40033002B06D0244B5A6866
:101CBC002349BB6913434B6006E0214B5A68BB694F
:101CCC00DB431F4913404B603B685B6803F4803374
:101CDC00002B06D01A4B1A681949BB6913430B60C9
:101CEC0006E0174B1A68BB69DB43154913400B60C0
:101CFC007B6A01337B623B681A687B6A22FA03F3C6
:101D0C00002B7FF4AFAE00BF00BF2C37BD4680BCAC
:101D1C00704700BF0000321000003110000022108C
:101D2C0000002110000012100000111000100240E1
:101D3C000000014000080140000C0140001001406F
:101D4C000004014080B485B000AF78600B467B8006
:101D5C007B689A687B881340002B02D00123FB73AD
:101D6C0001E00023FB73FB7B18461437BD4680BC97
:101D7C00704780B483B000AF78600B467B8013460D
:101D8C007B707B78002B03D07A887B681A6103E028
:101D9C007B881A047B681A6100BF0C37BD4680BC77
:101DAC00704780B485B000AF78600B467B807B6851
:101DBC00DB68FB607A88FB6813401A04FB68D94324
:101DCC007B880B401A437B681A6100BF1437BD46F1
:101DDC0080BC704780B586B000AF78607B68002B04
:101DEC0001D101236CE27B681B6803F00103002B1B
:101DFC0000F08780924B5B6803F00C03042B0CD033
:101E0C008F4B5B6803F00C03082B12D18C4B5B6877
:101E1C0003F48033B3F5803F0BD1894B1B6803F47B
:101E2C000033002B6CD07B685B68002B68D10123DE
:101E3C0046E27B685B68B3F5803F06D1804B1B683C
:101E4C007F4A43F4803313602EE07B685B68002B81
:101E5C000CD17B4B1B687A4A23F480331360784B8C
:101E6C001B68774A23F4802313601DE07B685B6852
:101E7C00B3F5A02F0CD1724B1B68714A43F480232D
:101E8C0013606F4B1B686E4A43F4803313600BE096
:101E9C006B4B1B686A4A23F480331360684B1B68D6
:101EAC00674A23F4802313607B685B68002B13D094
:101EBC00FFF7B6FC386108E0FFF7B2FC02463B695D
:101ECC00D31A642B01D90323FAE15D4B1B6803F48D
:101EDC000033002BF0D014E0FFF7A2FC386108E0CF
:101EEC00FFF79EFC02463B69D31A642B01D90323EE
:101EFC00E6E1534B1B6803F40033002BF0D100E0F8
:101F0C0000BF7B681B6803F00203002B63D04C4BB3
:101F1C005B6803F00C03002B0BD0494B5B6803F0A0
:101F2C000C03082B1CD1464B5B6803F48033002B4D
:101F3C0016D1434B1B6803F00203002B05D07B68C2
:101F4C001B69012B01D00123BAE13D4B1B6823F027
:101F5C00F8027B685B69DB00394913430B603AE09C
:101F6C007B681B69002B20D0364B01221A60FFF7CF
:101F7C0057FC386108E0FFF753FC02463B69D31A63
:101F8C00022B01D903239BE12D4B1B6803F00203A9
:101F9C00002BF0D02A4B1B6823F0F8027B685B699E
:101FAC00DB00274913430B6015E0264B00221A6017
:101FBC00FFF736FC386108E0FFF732FC02463B695C
:101FCC00D31A022B01D903237AE11D4B1B6803F0B2
:101FDC000203002BF0D17B681B6803F00803002B75
:101FEC003AD07B689B69002B19D0174B01221A60E1
:101FFC00FFF716FC386108E0FFF712FC02463B695C
:10200C00D31A022B01D903235AE10D4B5B6A03F05F
:10201C000203002BF0D0012000F09AFA1CE00A4BCE
:10202C0000221A60FFF7FCFB38610FE0FFF7F8FBAA
:10203C0002463B69D31A022B08D9032340E100BFA7
:10204C000010024000004242800442429E4B5B6AF8
:10205C0003F00203002BE9D17B681B6803F0040337
:10206C00002B00F0A6800023FB75974BDB6903F077
:10207C008053002B0DD1944BDB69934A43F0805372
:10208C00D361914BDB6903F08053BB60BB680123C8
:10209C00FB758E4B1B6803F48073002B18D18B4B94
:1020AC001B688A4A43F480731360FFF7B9FB3861ED
:1020BC0008E0FFF7B5FB02463B69D31A642B01D944
:1020CC000323FDE0814B1B6803F48073002BF0D0DD
:1020DC007B68DB68012B06D17B4B1B6A7A4A43F089
:1020EC00010313622DE07B68DB68002B0CD1764B6F
:1020FC001B6A754A23F001031362734B1B6A724A05
:10210C0023F0040313621CE07B68DB68052B0CD105
:10211C006D4B1B6A6C4A43F0040313626A4B1B6AD7
:10212C00694A43F0010313620BE0674B1B6A664A72
:10213C0023F001031362644B1B6A634A23F004030C
:10214C0013627B68DB68002B15D0FFF769FB3861E5
:10215C000AE0FFF765FB02463B69D31A41F288326D
:10216C00934201D90323ABE0574B1B6A03F00203E4
:10217C00002BEED014E0FFF753FB38610AE0FFF7B9
:10218C004FFB02463B69D31A41F28832934201D984
:10219C00032395E04C4B1B6A03F00203002BEED19A
:1021AC00FB7D012B05D1484BDB69474A23F080535B
:1021BC00D3617B68DB69002B00F08180424B5B684C
:1021CC0003F00C03082B61D07B68DB69022B46D132
:1021DC003F4B00221A60FFF723FB386108E0FFF742
:1021EC001FFB02463B69D31A022B01D9032367E07C
:1021FC00354B1B6803F00073002BF0D17B681B6A16
:10220C00B3F5803F08D1304B5B6823F400327B6818
:10221C009B682D4913434B602B4B5B6823F4741262
:10222C007B68196A7B685B6A0B43274913434B60D5
:10223C00274B01221A60FFF7F3FA386108E0FFF729
:10224C00EFFA02463B69D31A022B01D9032337E07C
:10225C001D4B1B6803F00073002BF0D02FE01C4BC0
:10226C0000221A60FFF7DCFA386108E0FFF7D8FAB1
:10227C0002463B69D31A022B01D9032320E0124BEF
:10228C001B6803F00073002BF0D118E07B68DB694E
:10229C00012B01D1012313E00B4B5B68FB60FB6846
:1022AC0003F480327B681B6A9A4206D1FB6803F404
:1022BC0070127B685B6A9A4201D0012300E0002314
:1022CC0018461837BD4680BD001002400070004013
:1022DC006000424280B584B000AF786039607B68A2
:1022EC00002B01D10123D0E06A4B1B6803F00703DC
:1022FC003A689A4210D9674B1B6823F0070265496C
:10230C003B6813430B60634B1B6803F007033A688D
:10231C009A4201D00123B8E07B681B6803F00203EA
:10232C00002B20D07B681B6803F00403002B05D026
:10233C00594B5B68584A43F4E06353607B681B68F5
:10234C0003F00803002B05D0534B5B68524A43F44F
:10235C0060535360504B5B6823F0F0027B689B68C2
:10236C004D4913434B607B681B6803F00103002B42
:10237C0040D07B685B68012B07D1474B1B6803F48B
:10238C000033002B15D101237FE07B685B68022BA7
:10239C0007D1414B1B6803F00073002B09D10123BB
:1023AC0073E03D4B1B6803F00203002B01D10123AA
:1023BC006BE0394B5B6823F003027B685B68364942
:1023CC0013434B60FFF72CFAF8600AE0FFF728FA8A
:1023DC000246FB68D31A41F28832934201D9032397
:1023EC0053E02D4B5B6803F00C027B685B689B0031
:1023FC009A42EBD1274B1B6803F007033A689A42C9
:10240C0010D2244B1B6823F0070222493B6813436C
:10241C000B60204B1B6803F007033A689A4201D00B
:10242C00012332E07B681B6803F00403002B08D007
:10243C00194B5B6823F4E0627B68DB681649134335
:10244C004B607B681B6803F00803002B09D0124B10
:10245C005B6823F460527B681B69DB000E491343F5
:10246C004B6000F021F802460B4B5B681B0903F034
:10247C000F030A49CB5C22FA03F3094A1360094B98
:10248C001B681846FFF78AF9002318461037BD461B
:10249C0080BD00BF0020024000100240C02D00088B
:1024AC005C0000206000002080B487B000AF0023E7
:1024BC00FB600023BB6000237B6100237B60002357
:1024CC003B611E4B5B68FB60FB6803F00C03042B49
:1024DC0002D0082B03D027E0194B3B6127E0FB68A7
:1024EC009B0C03F00F03174AD35C7B60FB6803F46F
:1024FC008033002B10D0114B5B685B0C03F0010395
:10250C00114AD35CBB607B680D4A02FB03F2BB68CB
:10251C00B2FBF3F37B6104E07B680C4A02FB03F330
:10252C007B617B693B6102E0054B3B6100BF3B6912
:10253C0018461C37BD4680BC704700BF00100240D7
:10254C0000127A00D02D0008E02D000800093D0093
:10255C0080B485B000AF78600A4B1B680A4AA2FBB6
:10256C0003235B0A7A6802FB03F3FB6000BFFB6882
:10257C005A1EFA60002BF9D100BF00BF1437BD46BC
:10258C0080BC70475C000020D34D621080B582B0D7
:10259C0000AF78607B68002B01D1012341E07B68A0
:1025AC0093F83D30DBB2002B06D17B68002283F818
:1025BC003C207868FEF7EEFE7B68022283F83D2013
:1025CC007B681A687B6804331946104600F056FA8B
:1025DC007B68012283F846207B68012283F83E2029
:1025EC007B68012283F83F207B68012283F840201E
:1025FC007B68012283F841207B68012283F842200A
:10260C007B68012283F843207B68012283F84420F5
:10261C007B68012283F845207B68012283F83D20EA
:10262C00002318460837BD4680BD000080B485B035
:10263C0000AF78607B6893F83D30DBB2012B01D0A2
:10264C00012335E07B68022283F83D207B681B6800
:10265C00DA687B681B6842F00102DA607B681B68F1
:10266C00164A934209D07B681B68B3F1804F04D0A3
:10267C007B681B68124A934211D17B681B689B686C
:10268C0003F00703FB60FB68062B10D07B681B680C
:10269C001A687B681B6842F001021A6007E07B68CD
:1026AC001B681A687B681B6842F001021A600023E1
:1026BC0018461437BD4680BC704700BF002C014043
:1026CC000004004080B584B000AF78607B681B6864
:1026DC00DB68FB607B681B681B69BB60BB6803F035
:1026EC000203002B20D0FB6803F00203002B1BD04D
:1026FC007B681B686FF002021A617B6801221A77F3
:10270C007B681B689B6903F00303002B03D078687C
:10271C0000F098F905E0786800F08BF9786800F023
:10272C009AF97B6800221A77BB6803F00403002B2C
:10273C0020D0FB6803F00403002B1BD07B681B68C4
:10274C006FF004021A617B6802221A777B681B689F
:10275C009B6903F44073002B03D0786800F072F986
:10276C0005E0786800F065F9786800F074F97B682A
:10277C0000221A77BB6803F00803002B20D0FB68FB
:10278C0003F00803002B1BD07B681B686FF008025A
:10279C001A617B6804221A777B681B68DB6903F07B
:1027AC000303002B03D0786800F04CF905E078683F
:1027BC0000F03FF9786800F04EF97B6800221A7738
:1027CC00BB6803F01003002B20D0FB6803F0100350
:1027DC00002B1BD07B681B686FF010021A617B68A2
:1027EC0008221A777B681B68DB6903F44073002BA3
:1027FC0003D0786800F026F905E0786800F019F944
:10280C00786800F028F97B6800221A77BB6803F01F
:10281C000103002B0CD0FB6803F00103002B07D045
:10282C007B681B686FF001021A617868FEF71EFD69
:10283C00BB6803F08003002B0CD0FB6803F0800313
:10284C00002B07D07B681B686FF080021A617868D8
:10285C0000F06FFABB6803F04003002B0CD0FB6850
:10286C0003F04003002B07D07B681B686FF040021D
:10287C001A61786800F0F8F8BB6803F02003002BAD
:10288C000CD0FB6803F02003002B07D07B681B687F
:10289C006FF020021A61786800F042FA00BF10371E
:1028AC00BD4680BD80B584B000AF78603960002330
:1028BC00FB737B6893F83C30012B01D10223B4E00D
:1028CC007B68012283F83C207B68022283F83D2040
:1028DC007B681B689B68BB60BB6823F07703BB609D
:1028EC00BB6823F47F43BB607B681B68BA689A6043
:1028FC003B681B68B3F5005F3ED0B3F5005F00F298
:10290C008780B3F5805F00F08680B3F5805F7FD859
:10291C00702B1AD0702B7BD8602B50D0602B77D8B3
:10292C00502B3CD0502B73D8402B58D0402B6FD809
:10293C00302B64D0302B6BD8202B60D0202B67D859
:10294C00002B5CD0102B5AD062E07B6818683B6877
:10295C0099683B685A683B68DB6800F06AF97B68E9
:10296C001B689B68BB60BB6843F07703BB607B68EC
:10297C001B68BA689A604FE07B6818683B68996876
:10298C003B685A683B68DB6800F053F97B681B684E
:10299C009A687B681B6842F480429A603CE07B68D2
:1029AC0018683B6859683B68DB681A4600F0CAF83F
:1029BC007B681B685021184600F021F92CE07B68DD
:1029CC0018683B6859683B68DB681A4600F0E8F801
:1029DC007B681B686021184600F011F91CE07B68CD
:1029EC0018683B6859683B68DB681A4600F0AAF81F
:1029FC007B681B684021184600F001F90CE07B68ED
:102A0C001A683B681B681946104600F0F8F803E09A
:102A1C000123FB7300E000BF7B68012283F83D209B
:102A2C007B68002283F83C20FB7B18461037BD46A0
:102A3C0080BD80B483B000AF786000BF0C37BD465A
:102A4C0080BC704780B483B000AF786000BF0C3797
:102A5C00BD4680BC704780B483B000AF786000BFC7
:102A6C000C37BD4680BC704780B483B000AF786033
:102A7C0000BF0C37BD4680BC7047000080B485B0E9
:102A8C0000AF786039607B681B68FB607B682B4A01
:102A9C00934207D07B68B3F1804F03D07B68284A00
:102AAC00934208D1FB6823F07003FB603B685B68C2
:102ABC00FA681343FB607B68204A934207D07B681B
:102ACC00B3F1804F03D07B681D4A934208D1FB6859
:102ADC0023F44073FB603B68DB68FA681343FB60CC
:102AEC00FB6823F080023B685B691343FB607B68E7
:102AFC00FA681A603B689A687B68DA623B681A6805
:102B0C007B689A627B680D4A934203D13B681A69D1
:102B1C007B681A637B6801225A617B681B6903F02E
:102B2C000103002B05D07B681B6923F001027B6835
:102B3C001A6100BF1437BD4680BC7047002C0140A1
:102B4C000004004080B487B000AFF860B9607A60D0
:102B5C00FB681B6A7B61FB681B6A23F00102FB6844
:102B6C001A62FB689B693B613B6923F0F0033B6194
:102B7C007B681B013A6913433B617B6923F00A03B1
:102B8C007B617A69BB6813437B61FB683A699A6124
:102B9C00FB687A691A6200BF1C37BD4680BC70475F
:102BAC0080B487B000AFF860B9607A60FB681B6ACC
:102BBC007B61FB681B6A23F01002FB681A62FB68DE
:102BCC009B693B613B6923F470433B617B681B034E
:102BDC003A6913433B617B6923F0A0037B61BB68BB
:102BEC001B017A6913437B61FB683A699A61FB6844
:102BFC007A691A6200BF1C37BD4680BC704780B42E
:102C0C0085B000AF786039607B689B68FB60FB68BF
:102C1C0023F07003FB603A68FB68134343F007032F
:102C2C00FB607B68FA689A6000BF1437BD4680BCB5
:102C3C00704780B487B000AFF860B9607A603B60D1
:102C4C00FB689B687B617B6923F47F437B613B68FA
:102C5C001A027B681A43BB6813437A6913437B617E
:102C6C00FB687A699A6000BF1C37BD4680BC704710
:102C7C0080B485B000AF786039607B6893F83C30E5
:102C8C00012B01D1022341E07B68012283F83C2017
:102C9C007B68022283F83D207B681B685B68FB60C5
:102CAC007B681B689B68BB60FB6823F07003FB6050
:102CBC003B681B68FA681343FB607B681B68FA6807
:102CCC005A607B681B68144A934209D07B681B6866
:102CDC00B3F1804F04D07B681B68104A93420CD12F
:102CEC00BB6823F08003BB603B685B68BA68134326
:102CFC00BB607B681B68BA689A607B68012283F8AA
:102D0C003D207B68002283F83C20002318461437B2
:102D1C00BD4680BC704700BF002C01400004004041
:102D2C0080B483B000AF786000BF0C37BD4680BC68
:102D3C00704780B483B000AF786000BF0C37BD46DD
:102D4C0080BC704770B500260C4D0D4C641BA41054
:102D5C00A64209D100F022F800260A4D0A4C641B49
:102D6C00A410A64205D170BD55F8043B9847013616
:102D7C00EEE755F8043B98470136F2E7E42D0008DE
:102D8C00E42D0008E42D0008E82D00080346024459
:102D9C00934200D1704703F8011BF9E7F8B500BF67
:102DAC00F8BC08BC9E467047F8B500BFF8BC08BC20
:042DBC009E46704778
:102DC00000000000000000000102030406070809DB
:102DD00002030405060708090A0B0C0D0E0F10105C
:042DE00001020000EC
:042DE40031010008B1
:042DE8000D010008D1
:102DEC0001000000000000000000000001000000D5
:102DFC0000000000000000000100000000000000C6
:102E0C0000000000010000000000000000000000B5
:102E1C00C8000000010000000100000001000000DB
:102E2C00010000000100000005000000030000008C
:102E3C0002000000050000000300000000127A00F0
:082E4C0010000000010000006D
:0400000508001731A7
:00000001FF
