:020000040800F2
:10000000002800207D1800080116000807160008C7
:100010000D1600081316000819160008000000004D
:100020000000000000000000000000001F16000893
:100030002B160008000000003716000843160008C1
:10004000C5180008C5180008C5180008C51800081C
:10005000C5180008C5180008C5180008C51800080C
:10006000C5180008C5180008C5180008C5180008FC
:10007000C5180008C5180008C5180008C5180008EC
:10008000C5180008C5180008C5180008C5180008DC
:10009000C5180008C5180008C5180008C5180008CC
:1000A000C5180008C5180008C5180008C5180008BC
:1000B00051160008C518000800000000C518000807
:1000C000C51800080000000000000000C518000866
:1000D00000000000C5180008C51800080000000056
:1000E000C5180008C5180008C51800080000000061
:1000F0000000000000000000000000000000000000
:0C01000000000000000000005FF808F1A3
:10010C0010B5054C237833B9044B13B10448AFF345
:10011C0000800123237010BD680000200000000047
:10012C00F42E000808B5034B1BB103490348AFF389
:10013C00008008BD000000006C000020F42E0008B8
:10014C0080B400AF064B1B68012B04D1044B00227A
:10015C001A60012300E000231846BD4680BC70479E
:10016C008400002080B400AF064B1B68012B04D127
:10017C00044B00221A60012300E000231846BD4600
:10018C0080BC70478800002080B400AF064B1B6811
:10019C00012B04D1044B00221A60012300E0002340
:1001AC001846BD4680BC70478C00002080B582B0DC
:1001BC0000AF00237B601CE1924A7B6852F823203D
:1001CC0091497B6841F82320904A7B6852F82320A0
:1001DC008C497B6841F823207B68002B58D1102177
:1001EC008B4801F055FE03461946884A7B6842F855
:1001FC002310854A7B6852F8232082497B6851F88A
:10020C0023309A4240F0F2807E4A7B6852F82320D9
:10021C007E497B6851F823309A4240F0E7807D4A52
:10022C007B6852F8232079497B6851F823309A4235
:10023C0015D0764A7B6852F8232076497B6841F8C2
:10024C002320724A7B6852F82330002B40F0CE807A
:10025C00714B01221A60714BC8221A60C6E06F4BB9
:10026C001B68013B6D4A13606C4B1B68002B40F004
:10027C00BD80664A7B6852F82330002B04D1654A56
:10028C007B68012142F82310644BC8221A60ADE050
:10029C007B68012B56D120215D4801F0F9FD034606
:1002AC0019465A4A7B6842F82310574A7B6852F821
:1002BC00232054497B6851F823309A4240F09680B1
:1002CC00504A7B6852F8232050497B6851F8233000
:1002DC009A4240F08B804F4A7B6852F823204B495E
:1002EC007B6851F823309A4214D0484A7B6852F804
:1002FC00232048497B6841F82320444A7B6852F804
:10030C002330002B72D1464B01221A60434BC8227A
:10031C001A606BE0414B1B68013B404A13603F4B3A
:10032C001B68002B62D1394A7B6852F82330002BB2
:10033C0004D1384A7B68012142F82310374BC8227C
:10034C001A6053E04021324801F0A2FD03461946E1
:10035C002E4A7B6842F823102B4A7B6852F82320E4
:10036C0028497B6851F823309A423FD1254A7B6853
:10037C0052F8232025497B6851F823309A4235D115
:10038C00244A7B6852F8232020497B6851F823309B
:10039C009A4214D01D4A7B6852F823201D497B6871
:1003AC0041F82320194A7B6852F82330002B1DD1C9
:1003BC001C4B01221A60194BC8221A6016E0174B0D
:1003CC001B68013B154A1360144B1B68002B0DD1A5
:1003DC000E4A7B6852F82330002B04D10D4A7B68FF
:1003EC00012142F823100D4BC8221A607B6801339F
:1003FC007B607B68022B7FF7DFAE00BF00BF083746
:10040C00BD4680BD0C00002000000020180000201C
:10041C00000801402400002084000020300000204F
:10042C00880000208C00002080B500AF794B1B6841
:10043C00013B032B69D801A252F823F059040008A0
:10044C0075040008E1040008AB04000801F00AF987
:10045C00704B02221A60704B1B68704A13604FF489
:10046C007A7000F033FF57E001F02CF96C4B1B68ED
:10047C00012B4CD14FF47A7000F028FF674B1B68AE
:10048C00013B664A1360654B1B68002B3FDC654BD8
:10049C001B68624A13605F4B04221A6037E001F05C
:1004AC0071F95F4B1B68012B33D14FF47A7000F05C
:1004BC000DFF5A4B1B68013B584A1360574B1B6886
:1004CC00002B26DC584B1B68544A1360514B0322FB
:1004DC001A601EE001F026F9514B1B68012B1AD152
:1004EC004FF47A7000F0F2FE4C4B1B68013B4B4A08
:1004FC0013604A4B1B68002B0DDC474B1B68474AAB
:10050C001360444B02221A6005E000BF04E000BFF8
:10051C0002E000BF00E000BF444B1B68013B062B10
:10052C006FD801A252F823F0510500080F060008FD
:10053C000F0600080F0600086D050008D905000815
:10054C00A305000801F0A6F8384B07221A60324BBD
:10055C001B68324A13604FF47A7000F0D3FE57E0F8
:10056C0001F0C8F8324B1B68012B4CD14FF47A7058
:10057C0000F0C8FE2F4B1B68013B2E4A13602D4B1D
:10058C001B68002B3FDC274B1B682A4A1360274B48
:10059C0007221A6037E001F00DF9254B1B68012B7F
:1005AC0033D14FF47A7000F0ADFE224B1B68013B47
:1005BC00204A13601F4B1B68002B26DC1A4B1B6850
:1005CC001C4A1360194B06221A601EE001F0C2F897
:1005DC00174B1B68012B1AD14FF47A7000F092FE66
:1005EC00144B1B68013B134A1360124B1B68002B06
:1005FC000DDC094B1B680F4A13600C4B05221A606B
:10060C0005E000BF04E000BF02E000BF00E000BF57
:10061C0000BF80BD340000204800002054000020A2
:10062C00B80000204C0000205000002038000020B2
:10063C00C00000205800002080B582B000AF786068
:10064C002C4B1B682A2B3CD02A2B46DC292B2CD07C
:10065C00292B42DC012B02D0282B1AD03DE001F0D3
:10066C0001F801F017F8FA2000F068FE7B68282BDF
:10067C0002D1204B28221A607B68292B02D11D4BFA
:10068C0029221A607B682A2B29D11A4B2A221A603C
:10069C0025E0194B1B68012B23D1FA2000F04EFEEC
:1006AC0001F0A0F801F0A8F81BE0134B1B68012B1C
:1006BC0019D1FA2000F042FE01F0AAF801F0C0F8BE
:1006CC0011E00D4B1B68012B0FD1FA2000F036FE08
:1006DC0001F0AAF801F0C0F807E000BF06E000BF87
:1006EC0004E000BF02E000BF00E000BF00BF08371D
:1006FC00BD4680BD44000020C800002080B500AF7E
:10070C008F4B1B68013B182B00F20E8101A252F893
:10071C0023F000BF850700083509000835090008DB
:10072C0035090008350900083509000835090008A5
:10073C003509000835090008350900083509000895
:10074C003509000835090008350900083509000885
:10075C003509000835090008350900083509000875
:10076C00350900083509000897070008ED0700084F
:10077C005F080008D1080008162000F033FB00F0D9
:10078C00FBFB6F4B16221A60D7E06E4B1A686E4B50
:10079C001B681A446D4B1B689A4207D000F062FF2D
:1007AC0000F078FF1A2000F01DFB01E0FFF73CFE83
:1007BC00634B1B68184600F015FB00F0DDFBFFF7E0
:1007CC00BFFC0346002B00F0B1805D4B17221A6072
:1007DC005E4B1B685E4A13605E4B01221A60A5E0FB
:1007EC002820FFF729FF564B1B68184600F0FAFA31
:1007FC0000F0C2FBFFF7A4FC0346002B0AD0504BC1
:10080C0018221A604F4B1B68514A1360514B01223E
:10081C001A608DE0FFF7A6FC0346002B0CD04C4B66
:10082C001B6801334A4A1360494B1B68632B7FDDFD
:10083C00474B01221A607BE0FFF7A6FC0346002B16
:10084C0076D0434B1B68414A13603D4B16221A600D
:10085C006EE02920FFF7F0FE394B1B68184600F0BC
:10086C00C1FA00F089FBFFF76BFC0346002B0AD0A2
:10087C00334B19221A60344B1B68354A1360354BC5
:10088C0001221A6056E0FFF76DFC0346002B0CD0DA
:10089C002F4B1B6801332E4A13602D4B1B68632BA7
:1008AC0048DD2B4B01221A6044E0FFF76DFC034638
:1008BC00002B3FD0264B1B68224A1360204B16227C
:1008CC001A6037E02A20FFF7B7FE1D4B1B6818464D
:1008DC0000F088FA00F050FBFFF732FC0346002BC7
:1008EC0003D0174B16221A6026E0FFF73BFC034699
:1008FC00002B0CD0164B1B680133154A1360144B9C
:10090C001B68632B18DD124B01221A6014E0FFF7F1
:10091C003BFC0346002B0FD00D4B1B680A4A13609F
:10092C00074B16221A6007E000BF06E000BF04E088
:10093C0000BF02E000BF00E000BF00BF80BD00BFF1
:10094C0040000020500000204C00002048000020F7
:10095C00A00000204400002080B582B000AF786079
:10096C007B68092B00F29E8101A252F823F000BF94
:10097C00A5090008F3090008410A00088F0A0008BD
:10098C00DD0A00082B0B0008790B0008C70B0008C8
:10099C00150C0008630C000800224FF40051C448E9
:1009AC0001F08DFA00224FF48041C14801F087FA22
:1009BC0000224FF40041BE4801F081FA00220121CF
:1009CC00BC4801F07CFA00220221BA4801F077FA07
:1009DC0000220421B74801F072FA01220821B5481F
:1009EC0001F06DFA5FE101224FF40051B04801F0C3
:1009FC0066FA00224FF48041AD4801F060FA002203
:100A0C004FF40041AA4801F05AFA01220121A948E9
:100A1C0001F055FA01220221A64801F050FA0122F8
:100A2C000421A44801F04BFA01220821A14801F04D
:100A3C0046FA38E100224FF400519D4801F03FFA8C
:100A4C0000224FF480419A4801F039FA01224FF408
:100A5C000041974801F033FA00220121954801F03A
:100A6C002EFA00220221934801F029FA01220421D6
:100A7C00904801F024FA002208218E4801F01FFA58
:100A8C0011E100224FF40051894801F018FA0022BC
:100A9C004FF48041864801F012FA00224FF40041D5
:100AAC00834801F00CFA00220121824801F007FA78
:100ABC00012202217F4801F002FA012204217D4823
:100ACC0001F0FDF9002208217A4801F0F8F9EAE07A
:100ADC0001224FF40051764801F0F1F900224FF455
:100AEC008041734801F0EBF900224FF4004170484B
:100AFC0001F0E5F9012201216E4801F0E0F9012233
:100B0C0002216C4801F0DBF900220421694801F054
:100B1C00D6F900220821674801F0D1F9C3E0002280
:100B2C004FF40051624801F0CAF901224FF48041A0
:100B3C005F4801F0C4F900224FF400415C4801F019
:100B4C00BEF9002201215B4801F0B9F90122022112
:100B5C00584801F0B4F900220421564801F0AFF9CD
:100B6C0000220821534801F0AAF99CE000224FF41E
:100B7C0000514F4801F0A3F901224FF480414C4839
:100B8C0001F09DF900224FF40041494801F097F91A
:100B9C0000220121474801F092F900220221454828
:100BAC0001F08DF900220421424801F088F900225D
:100BBC000821404801F083F975E000224FF4005100
:100BCC003B4801F07CF900224FF48041384801F099
:100BDC0076F900224FF40041354801F070F90122FA
:100BEC000121344801F06BF901220221314801F056
:100BFC0066F9012204212F4801F061F90122082134
:100C0C002C4801F05CF94EE000224FF400512848CA
:100C1C0001F055F900224FF48041254801F04FF9BD
:100C2C0000224FF40041224801F049F90022012131
:100C3C00204801F044F9002202211E4801F03FF93E
:100C4C00002204211B4801F03AF90022082119481E
:100C5C0001F035F927E000224FF40051144801F05F
:100C6C002EF900224FF48041114801F028F900229E
:100C7C004FF400410E4801F022F9002201210D48E9
:100C8C0001F01DF9012202210A4801F018F9002295
:100C9C000421084801F013F900220821054801F04D
:100CAC000EF900E000BF00BF0837BD4680BD00BF95
:100CBC0000080140000C014080B582B000AF7860A4
:100CCC007B68032B00F2848001A252F823F000BF52
:100CDC00ED0C0008290D0008650D0008A10D000899
:100CEC0000224FF480513D4801F0E9F801224FF405
:100CFC0000513A4801F0E3F801224FF480413748A3
:100D0C0001F0DDF801224FF40041344801F0D7F82E
:100D1C00334B1B681846FFF71FFE5AE001224FF4B5
:100D2C0080512E4801F0CBF800224FF400512B4893
:100D3C0001F0C5F801224FF48041284801F0BFF8BA
:100D4C0001224FF40041254801F0B9F8244B5B68AF
:100D5C001846FFF701FE3CE001224FF480511F487A
:100D6C0001F0ADF801224FF400511C4801F0A7F836
:100D7C0000224FF48041194801F0A1F801224FF4F0
:100D8C000041164801F09BF8154B9B681846FFF77D
:100D9C00E3FD1EE001224FF48051104801F08FF862
:100DAC0001224FF400510D4801F089F801224FF453
:100DBC0080410A4801F083F800224FF400410748B3
:100DCC0001F07DF8064BDB681846FFF7C5FD00E027
:100DDC0000BF00BF0837BD4680BD00BF000C0140FE
:100DEC009000002080B483B000AF78607B68163B25
:100DFC00042B00F2B08001A252F823F01D0E000863
:100E0C00830E0008C30E0008030F0008430F0008F0
:100E1C00544B1B68544A82FB03129210DB17D31AF3
:100E2C00524A13604F4B19684F4B83FB01239A10A6
:100E3C00CB17D21A13469B0013445B00CA1A4B4BB8
:100E4C005A604B4B1B68484A82FB03129210DB170B
:100E5C00D31A464A9360464B1968434B83FB0123D4
:100E6C009A10CB17D21A13469B0013445B00CA1A74
:100E7C003E4BDA6070E03F4B1B683B4A82FB03122F
:100E8C009210DB17D31A394A13603A4B1968364B58
:100E9C0083FB01239A10CB17D21A13469B001344E1
:100EAC005B00CA1A314B5A60304B00229A602F4BB0
:100EBC000222DA6050E02F4B1B682B4A82FB031294
:100ECC009210DB17D31A294A13602A4B1968264B48
:100EDC0083FB01239A10CB17D21A13469B001344A1
:100EEC005B00CA1A214B5A60204B00229A601F4BA0
:100EFC000322DA6030E01F4B1B681B4A82FB031293
:100F0C009210DB17D31A194A13601A4B1968164B37
:100F1C0083FB01239A10CB17D21A13469B00134460
:100F2C005B00CA1A114B5A60104B00229A600F4B8F
:100F3C000422DA6010E00D4B4FF0FF321A600B4BBD
:100F4C004FF0FF325A60094B4FF0FF329A60074B5B
:100F5C004FF0FF32DA6000BF00BF0C37BD4680BCDB
:100F6C00704700BF54000020676666669000002042
:100F7C0058000020A000002080B500AF4A4B1B6831
:100F8C00013B202B00F2858001A252F823F000BF18
:100F9C00211000089F1000089F1000089F100008E7
:100FAC009F1000089F1000089F1000089F10000859
:100FBC009F1000089F1000089F1000089F10000849
:100FCC009F1000089F1000089F1000089F10000839
:100FDC009F1000089F1000089F1000089F10000829
:100FEC009F1000089F1000089F1000089F10000819
:100FFC009F1000089F1000089F1000089F10000809
:10100C009F1000082F1000084B10000867100008F4
:10101C0083100008244B1E221A60FA2000F0AAF953
:10102C0040E00020FFF748FE204B1B68012B32D11B
:10103C00FA2000F09FF91C4B1F221A602BE00120B4
:10104C00FFF73AFE194B1B68012B26D1FA2000F052
:10105C0091F9154B20221A601FE00220FFF72CFE9D
:10106C00124B1B68012B1AD1FA2000F083F90E4B9E
:10107C0021221A6013E00320FFF71EFE0B4B1B68A6
:10108C00012B0ED1FA2000F075F9074B1E221A60C5
:10109C0007E000BF06E000BF04E000BF02E000BFB5
:1010AC0000E000BF00BF80BD3C000020D00000204D
:1010BC0080B500AF00F002FC00F00CF800F092F8E4
:1010CC0000F044F8024801F057FBFFF717FBFCE770
:1010DC00F400002080B590B000AF07F1180328226F
:1010EC000021184601F0F8FE3B1D00221A605A60E0
:1010FC009A60DA601A610223BB610123BB62102380
:10110C00FB6200237B6307F11803184600F008FF0D
:10111C000346002B01D000F0D3F80F237B60002393
:10112C00BB600023FB6000233B6100237B613B1D04
:10113C000021184601F074F90346002B01D000F091
:10114C00BFF800BF4037BD4680BD000080B586B0FB
:10115C0000AF07F1080300221A605A609A60DA6047
:10116C003B4600221A605A601D4B4FF080421A60B9
:10117C001B4B41F63F725A60194B00229A60184B78
:10118C000922DA60164B00221A61154B00229A6173
:10119C00134801F0A1FA0346002B01D000F090F89F
:1011AC004FF48053BB6007F1080319460C4801F05B
:1011BC001FFC0346002B01D000F082F800233B609B
:1011CC0000237B603B461946054801F0F7FD0346BA
:1011DC00002B01D000F074F800BF1837BD4680BD5D
:1011EC00F400002080B586B000AF07F108030022A0
:1011FC001A605A609A60DA60284B9B69274A43F060
:10120C0004039361254B9B6903F004037B607B68AB
:10121C00224B9B69214A43F0080393611F4B9B6946
:10122C0003F008033B603B6800224FF68E711C48AC
:10123C0000F045FE00224FF20F011A4800F03FFE6D
:10124C004FF68E73BB600123FB6000233B610223CE
:10125C007B6107F108031946114800F09FFC7023CD
:10126C00BB600023FB6001233B6107F108031946B7
:10127C000B4800F093FC4FF20F03BB600123FB60A3
:10128C0000233B6102237B6107F1080319460548E3
:10129C0000F084FC00BF1837BD4680BD0010024032
:1012AC0000080140000C014080B582B000AF7860AE
:1012BC0000F07CF8FEF77AFF00BF0837BD4680BD12
:1012CC0080B400AF72B600BFFEE7000080B483B0FC
:1012DC0000AF78607B68084A82FB03129210DB1720
:1012EC00D31A064A1360064B00221A6000BF0C3753
:1012FC00BD4680BC704700BF67666666B4000020C0
:10130C00B800002080B483B000AF78607B68084AD6
:10131C0082FB03129210DB17D31A064A1360064B9A
:10132C0000221A6000BF0C37BD4680BC704700BF5E
:10133C0067666666BC000020C000002080B483B0E5
:10134C0000AF78607B68084A82FB03129210DB17AF
:10135C00D31A064A1360064B00221A6000BF0C37E2
:10136C00BD4680BC704700BF67666666C40000203F
:10137C00C800002080B483B000AF78607B68084A56
:10138C0082FB03129210DB17D31A064A1360064B2A
:10139C0000221A6000BF0C37BD4680BC704700BFEE
:1013AC0067666666CC000020D000002080B400AFD9
:1013BC00514B1B68002B0BDD4F4B1B68013B4E4AFE
:1013CC0013604D4B1B68002B02DC4C4B01221A6046
:1013DC004B4B1B68002B0BDD494B1B68013B484AF0
:1013EC001360474B1B68002B02DC464B01221A6032
:1013FC00454B1B68002B0BDD434B1B68013B424AE2
:10140C001360414B1B68002B02DC404B01221A601D
:10141C003F4B1B68002B0BDD3D4B1B68013B3C4AD3
:10142C0013603B4B1B68002B02DC3A4B01221A6009
:10143C00394B1B68002B0BDD374B1B68013B364AC5
:10144C001360354B1B68002B02DC344B01221A60F5
:10145C00334B1B68002B0BDD314B1B68013B304AB7
:10146C0013602F4B1B68002B02DC2E4B01221A60E1
:10147C002D4B1B68002B0BDD2B4B1B68013B2A4AA9
:10148C001360294B1B68002B02DC284B01221A60CD
:10149C00274B1B68002B0BDD254B1B68013B244A9B
:1014AC001360234B1B68002B02DC224B01221A60B9
:1014BC00214B1B68002B0BDD1F4B1B68013B1E4A8D
:1014CC0013601D4B1B68002B02DC1C4B01221A60A5
:1014DC001B4B1B68002B0BDD194B1B68013B184A7F
:1014EC001360174B1B68002B02DC164B01221A6091
:1014FC0000BFBD4680BC7047A4000020A80000209F
:10150C00AC000020B0000020B4000020B800002087
:10151C00BC000020C0000020C4000020C800002037
:10152C00CC000020D0000020D4000020D8000020E7
:10153C00DC000020E0000020E4000020E800002097
:10154C00EC000020F000002080B485B000AF154BFB
:10155C009B69144A43F001039361124B9B6903F09E
:10156C000103BB60BB680F4BDB690E4A43F0805331
:10157C00D3610C4BDB6903F080537B607B680A4BB7
:10158C005B68FB60FB6823F0E063FB60FB6843F087
:10159C008063FB60044AFB68536000BF1437BD4690
:1015AC0080BC7047001002400000014080B584B040
:1015BC0000AF78607B681B68B3F1804F13D10C4B84
:1015CC00DB690B4A43F00103D361094BDB6903F080
:1015DC000103FB60FB68002200211C2000F0A7FA2D
:1015EC001C2000F0C0FA00BF1037BD4680BD00BF04
:1015FC000010024080B400AFFEE780B400AFFEE7FD
:10160C0080B400AFFEE780B400AFFEE780B400AF5B
:10161C00FEE780B400AF00BFBD4680BC704780B40D
:10162C0000AF00BFBD4680BC704780B400AF00BFA8
:10163C00BD4680BC704780B500AF00F085F900BF97
:10164C0080BD000080B500AF024801F0E1F800BF9A
:10165C0080BD00BFF400002080B400AF00BFBD46C9
:10166C0080BC704780B500AF00228021084800F094
:10167C0026FC00224FF48071054800F020FC00226B
:10168C004FF40071024800F01AFC00BF80BD00BF8F
:10169C000008014080B500AF00224FF4806108487B
:1016AC0000F00DFC00224FF40061054800F007FC2F
:1016BC0000224FF48051024800F001FC00BF80BDB5
:1016CC000008014080B500AF01228021084800F0DD
:1016DC00F6FB00224FF48071054800F0F0FB00226D
:1016EC004FF40071024800F0EAFB00BF80BD00BF60
:1016FC000008014080B500AF01224FF4806108481A
:10170C0000F0DDFB00224FF40061054800F0D7FB30
:10171C0000224FF48051024800F0D1FB00BF80BD85
:10172C000008014080B500AF00228021084800F07D
:10173C00C6FB01224FF48071054800F0C0FB00226B
:10174C004FF40071024800F0BAFB00BF80BD00BF2F
:10175C000008014080B500AF00224FF480610848BA
:10176C0000F0ADFB01224FF40061054800F0A7FB2F
:10177C0000224FF48051024800F0A1FB00BF80BD55
:10178C000008014080B500AF00228021084800F01D
:10179C0096FB00224FF48071054800F090FB01226B
:1017AC004FF40071024800F08AFB00BF80BD00BFFF
:1017BC000008014080B500AF00224FF4806108485A
:1017CC0000F07DFB00224FF40061054800F077FB30
:1017DC0001224FF48051024800F071FB00BF80BD24
:1017EC000008014080B500AF8021024800F07FFB6B
:1017FC0000BF80BD0008014080B500AF4FF4806190
:10180C00024800F074FB00BF80BD00BF000801401F
:10181C0080B500AF4FF48071024800F068FB00BF48
:10182C0080BD00BF0008014080B500AF4FF40071CF
:10183C00024800F05CFB00BF80BD00BF0008014007
:10184C0080B500AF4FF40061024800F050FB00BFC0
:10185C0080BD00BF0008014080B500AF4FF480513F
:10186C00024800F044FB00BF80BD00BF00080140EF
:10187C00FFF7F2FE0B480C490C4A002302E0D45847
:10188C00C4500433C4188C42F9D3094A094C0023C0
:10189C0001E013600432A242FBD301F0F9FAFFF726
:1018AC0007FC70470000002068000020382F00085B
:1018BC006800002040010020FEE7000080B500AF6A
:1018CC00084B1B68074A43F010031360032000F019
:1018DC0023F90F2000F008F8FFF736FE0023184616
:1018EC0080BD00BF0020024080B582B000AF7860A0
:1018FC00124B1A68124B1B7819464FF47A73B3FBD0
:10190C00F1F3B2FBF3F3184600F03BF90346002B5E
:10191C0001D001230EE07B680F2B0AD800227968D6
:10192C004FF0FF3000F003F9064A7B681360002388
:10193C0000E0012318460837BD4680BD5C0000203E
:10194C00640000206000002080B400AF054B1B78C1
:10195C001A46054B1B681344034A136000BFBD466F
:10196C0080BC7047640000203C01002080B400AFB4
:10197C00024B1B681846BD4680BC70473C010020DA
:10198C0080B485B000AF78607B6803F00703FB6020
:10199C000C4BDB68BB60BA684FF6FF031340BB60AF
:1019AC00FB681A02BB68134343F0BF6343F4003374
:1019BC00BB60044ABB68D36000BF1437BD4680BC13
:1019CC00704700BF00ED00E080B400AF044BDB6853
:1019DC001B0A03F007031846BD4680BC704700BFC6
:1019EC0000ED00E080B483B000AF0346FB7197F9C3
:1019FC000730002B0BDBFB7903F01F02064997F92C
:101A0C0007305B09012000FA02F241F8232000BFE5
:101A1C000C37BD4680BC704700E100E080B483B059
:101A2C0000AF03463960FB7197F90730002B0ADBD6
:101A3C003B68DAB20C4997F907301201D2B20B4469
:101A4C0083F800230AE03B68DAB20849FB7903F01B
:101A5C000F03043B1201D2B20B441A7600BF0C37B1
:101A6C00BD4680BC704700BF00E100E000ED00E027
:101A7C0080B489B000AFF860B9607A60FB6803F09D
:101A8C000703FB61FB69C3F10703042B28BF042385
:101A9C00BB61FB690433062B02D9FB69033B00E0F5
:101AAC0000237B614FF0FF32BB6902FA03F3DA4388
:101ABC00BB681A407B699A404FF0FF317B6901FA91
:101ACC0003F3D9437B680B40134318462437BD46B8
:101ADC0080BC704780B582B000AF78607B68013BFA
:101AEC00B3F1807F01D301230FE00A4A7B68013BED
:101AFC0053600F214FF0FF30FFF790FF054B002292
:101B0C009A60044B07221A60002318460837BD461A
:101B1C0080BD00BF10E000E080B582B000AF7860FF
:101B2C007868FFF72DFF00BF0837BD4680BD80B534
:101B3C0086B000AF0346B9607A60FB7300237B610B
:101B4C00FFF742FF78617A68B9687869FFF790FF10
:101B5C00024697F90F3011461846FFF75FFF00BF9A
:101B6C001837BD4680BD80B582B000AF0346FB710F
:101B7C0097F907301846FFF735FF00BF0837BD4609
:101B8C0080BD80B582B000AF78607868FFF7A2FFA7
:101B9C00034618460837BD4680BD000080B48BB0A4
:101BAC0000AF7860396000237B6200233B6248E120
:101BBC0001227B6A02FA03F3FB613B681B68FA693A
:101BCC001340BB61BA69FB699A4240F037813B68AC
:101BDC005B68A34A93425ED0A14A934275D8A14A4E
:101BEC00934258D09F4A93426FD89F4A934252D007
:101BFC009D4A934269D89D4A93424CD09B4A93424A
:101C0C0063D89B4A934246D0994A93425DD8122B93
:101C1C002AD8122B59D801A252F823F0A31C000881
:101C2C007D1C00088F1C0008D11C0008D71C000864
:101C3C00D71C0008D71C0008D71C0008D71C0008AC
:101C4C00D71C0008D71C0008D71C0008D71C00089C
:101C5C00D71C0008D71C0008D71C0008D71C00088C
:101C6C00851C0008991C0008824A934213D02CE072
:101C7C003B68DB683B6229E03B68DB6804333B6212
:101C8C0024E03B68DB6808333B621FE03B68DB68A1
:101C9C000C333B621AE03B689B68002B02D1042397
:101CAC003B6213E03B689B68012B05D108233B6228
:101CBC007B68FA691A6109E008233B627B68FA6960
:101CCC005A6103E000233B6200E000BFBB69FF2BBD
:101CDC0001D87B6801E07B6804337B61BB69FF2B17
:101CEC0002D87B6A9B0002E07B6A083B9B003B614D
:101CFC007B691A680F213B6901FA03F3DB431A4035
:101D0C00396A3B6901FA03F31A437B691A603B6831
:101D1C005B6803F08053002B00F09080564B9B695E
:101D2C00554A43F001039361534B9B6903F0010344
:101D3C00BB60BB68514A7B6A9B08023352F8233064
:101D4C00FB607B6A03F003039B000F2202FA03F390
:101D5C00DB43FA681340FB607B68494A93420DD021
:101D6C007B68484A934207D07B68474A934201D12B
:101D7C00022304E0032302E0012300E000237A6A3B
:101D8C0002F0030292009340FA681343FB603B4954
:101D9C007B6A9B080233FA6841F823203B685B6836
:101DAC0003F48013002B06D0384B9A683749BB6973
:101DBC0013438B6006E0354B9A68BB69DB433349B0
:101DCC0013408B603B685B6803F40013002B06D058
:101DDC002E4BDA682D49BB691343CB6006E02B4BC5
:101DEC00DA68BB69DB4329491340CB603B685B680D
:101DFC0003F40033002B06D0244B5A682349BB69EB
:101E0C0013434B6006E0214B5A68BB69DB431F4907
:101E1C0013404B603B685B6803F48033002B06D0A7
:101E2C001A4B1A681949BB6913430B6006E0174B30
:101E3C001A68BB69DB43154913400B607B6A01339D
:101E4C007B623B681A687B6A22FA03F3002B7FF4EF
:101E5C00AFAE00BF00BF2C37BD4680BC704700BF83
:101E6C000000321000003110000022100000211080
:101E7C000000121000001110001002400000014080
:101E8C0000080140000C014000100140000401401A
:101E9C0080B485B000AF78600B467B807B689A6815
:101EAC007B881340002B02D00123FB7301E000233D
:101EBC00FB73FB7B18461437BD4680BC704780B45F
:101ECC0083B000AF78600B467B8013467B707B78C9
:101EDC00002B03D07A887B681A6103E07B881A0494
:101EEC007B681A6100BF0C37BD4680BC704780B45C
:101EFC0085B000AF78600B467B807B68DB68FB604D
:101F0C007A88FB6813401A04FB68D9437B880B4022
:101F1C001A437B681A6100BF1437BD4680BC7047FA
:101F2C0080B586B000AF78607B68002B01D10123AF
:101F3C006CE27B681B6803F00103002B00F08780C8
:101F4C00924B5B6803F00C03042B0CD08F4B5B683B
:101F5C0003F00C03082B12D18C4B5B6803F4803319
:101F6C00B3F5803F0BD1894B1B6803F40033002B76
:101F7C006CD07B685B68002B68D1012346E27B68E0
:101F8C005B68B3F5803F06D1804B1B687F4A43F4F6
:101F9C00803313602EE07B685B68002B0CD17B4B8D
:101FAC001B687A4A23F480331360784B1B68774A9A
:101FBC0023F4802313601DE07B685B68B3F5A02FCE
:101FCC000CD1724B1B68714A43F4802313606F4B26
:101FDC001B686E4A43F4803313600BE06B4B1B6839
:101FEC006A4A23F480331360684B1B68674A23F4F6
:101FFC00802313607B685B68002B13D0FFF7B6FC63
:10200C00386108E0FFF7B2FC02463B69D31A642B37
:10201C0001D90323FAE15D4B1B6803F40033002B59
:10202C00F0D014E0FFF7A2FC386108E0FFF79EFC4B
:10203C0002463B69D31A642B01D90323E6E1534BC7
:10204C001B6803F40033002BF0D100E000BF7B6869
:10205C001B6803F00203002B63D04C4B5B6803F04E
:10206C000C03002B0BD0494B5B6803F00C03082BC3
:10207C001CD1464B5B6803F48033002B16D1434BC9
:10208C001B6803F00203002B05D07B681B69012B36
:10209C0001D00123BAE13D4B1B6823F0F8027B68A9
:1020AC005B69DB00394913430B603AE07B681B69C1
:1020BC00002B20D0364B01221A60FFF757FC3861F9
:1020CC0008E0FFF753FC02463B69D31A022B01D9F7
:1020DC0003239BE12D4B1B6803F00203002BF0D074
:1020EC002A4B1B6823F0F8027B685B69DB002749ED
:1020FC0013430B6015E0264B00221A60FFF736FCE9
:10210C00386108E0FFF732FC02463B69D31A022B18
:10211C0001D903237AE11D4B1B6803F00203002B4A
:10212C00F0D17B681B6803F00803002B3AD07B6866
:10213C009B69002B19D0174B01221A60FFF716FC74
:10214C00386108E0FFF712FC02463B69D31A022BF8
:10215C0001D903235AE10D4B5B6A03F00203002BF8
:10216C00F0D0012000F09AFA1CE00A4B00221A6011
:10217C00FFF7FCFB38610FE0FFF7F8FB02463B6909
:10218C00D31A022B08D9032340E100BF00100240F0
:10219C0000004242800442429E4B5B6A03F0020301
:1021AC00002BE9D17B681B6803F00403002B00F0C3
:1021BC00A6800023FB75974BDB6903F08053002B43
:1021CC000DD1944BDB69934A43F08053D361914B0F
:1021DC00DB6903F08053BB60BB680123FB758E4B3E
:1021EC001B6803F48073002B18D18B4B1B688A4A35
:1021FC0043F480731360FFF7B9FB386108E0FFF715
:10220C00B5FB02463B69D31A642B01D90323FDE0CD
:10221C00814B1B6803F48073002BF0D07B68DB6868
:10222C00012B06D17B4B1B6A7A4A43F001031362E4
:10223C002DE07B68DB68002B0CD1764B1B6A754A52
:10224C0023F001031362734B1B6A724A23F00403DD
:10225C0013621CE07B68DB68052B0CD16D4B1B6A91
:10226C006C4A43F0040313626A4B1B6A694A43F0DD
:10227C00010313620BE0674B1B6A664A23F00103F0
:10228C001362644B1B6A634A23F0040313627B687A
:10229C00DB68002B15D0FFF769FB38610AE0FFF70C
:1022AC0065FB02463B69D31A41F28832934201D94D
:1022BC000323ABE0574B1B6A03F00203002BEED059
:1022CC0014E0FFF753FB38610AE0FFF74FFB0246BF
:1022DC003B69D31A41F28832934201D9032395E02A
:1022EC004C4B1B6A03F00203002BEED1FB7D012B40
:1022FC0005D1484BDB69474A23F08053D3617B6897
:10230C00DB69002B00F08180424B5B6803F00C030F
:10231C00082B61D07B68DB69022B46D13F4B002236
:10232C001A60FFF723FB386108E0FFF71FFB02463A
:10233C003B69D31A022B01D9032367E0354B1B6889
:10234C0003F00073002BF0D17B681B6AB3F5803F60
:10235C0008D1304B5B6823F400327B689B682D49B5
:10236C0013434B602B4B5B6823F474127B68196A24
:10237C007B685B6A0B43274913434B60274B012255
:10238C001A60FFF7F3FA386108E0FFF7EFFA02463C
:10239C003B69D31A022B01D9032337E01D4B1B6871
:1023AC0003F00073002BF0D02FE01C4B00221A60BE
:1023BC00FFF7DCFA386108E0FFF7D8FA02463B6910
:1023CC00D31A022B01D9032320E0124B1B6803F014
:1023DC000073002BF0D118E07B68DB69012B01D175
:1023EC00012313E00B4B5B68FB60FB6803F480324A
:1023FC007B681B6A9A4206D1FB6803F470127B68F7
:10240C005B6A9A4201D0012300E00023184618377A
:10241C00BD4680BD0010024000700040600042428A
:10242C0080B584B000AF786039607B68002B01D137
:10243C000123D0E06A4B1B6803F007033A689A4209
:10244C0010D9674B1B6823F0070265493B6813439F
:10245C000B60634B1B6803F007033A689A4201D088
:10246C000123B8E07B681B6803F00203002B20D02B
:10247C007B681B6803F00403002B05D0594B5B6889
:10248C00584A43F4E06353607B681B6803F008030D
:10249C00002B05D0534B5B68524A43F46053536096
:1024AC00504B5B6823F0F0027B689B684D491343EB
:1024BC004B607B681B6803F00103002B40D07B68EA
:1024CC005B68012B07D1474B1B6803F40033002BCF
:1024DC0015D101237FE07B685B68022B07D1414B50
:1024EC001B6803F00073002B09D1012373E03D4BF3
:1024FC001B6803F00203002B01D101236BE0394B65
:10250C005B6823F003027B685B68364913434B60BE
:10251C00FFF72CFAF8600AE0FFF728FA0246FB688E
:10252C00D31A41F28832934201D9032353E02D4B45
:10253C005B6803F00C027B685B689B009A42EBD1F2
:10254C00274B1B6803F007033A689A4210D2244BBE
:10255C001B6823F0070222493B6813430B60204B96
:10256C001B6803F007033A689A4201D0012332E05A
:10257C007B681B6803F00403002B08D0194B5B68C5
:10258C0023F4E0627B68DB68164913434B607B687D
:10259C001B6803F00803002B09D0124B5B6823F473
:1025AC0060527B681B69DB000E4913434B6000F0E3
:1025BC0021F802460B4B5B681B0903F00F030A4919
:1025CC00CB5C22FA03F3094A1360094B1B681846CB
:1025DC00FFF78AF9002318461037BD4680BD00BFAF
:1025EC0000200240001002400C2F00085C0000206C
:1025FC006000002080B487B000AF0023FB60002394
:10260C00BB6000237B6100237B6000233B611E4B7E
:10261C005B68FB60FB6803F00C03042B02D0082BF7
:10262C0003D027E0194B3B6127E0FB689B0C03F0C0
:10263C000F03174AD35C7B60FB6803F48033002BD9
:10264C0010D0114B5B685B0C03F00103114AD35C97
:10265C00BB607B680D4A02FB03F2BB68B2FBF3F371
:10266C007B6104E07B680C4A02FB03F37B617B69B2
:10267C003B6102E0054B3B6100BF3B6918461C37D0
:10268C00BD4680BC704700BF0010024000127A00AB
:10269C001C2F00082C2F000800093D0080B485B0C9
:1026AC0000AF78600A4B1B680A4AA2FB03235B0A43
:1026BC007A6802FB03F3FB6000BFFB685A1EFA60EA
:1026CC00002BF9D100BF00BF1437BD4680BC70474A
:1026DC005C000020D34D621080B582B000AF7860F2
:1026EC007B68002B01D1012341E07B6893F83D30DE
:1026FC00DBB2002B06D17B68002283F83C20786883
:10270C00FEF754FF7B68022283F83D207B681A6831
:10271C007B6804331946104600F056FA7B68012298
:10272C0083F846207B68012283F83E207B680122D7
:10273C0083F83F207B68012283F840207B680122CC
:10274C0083F841207B68012283F842207B680122B8
:10275C0083F843207B68012283F844207B680122A4
:10276C0083F845207B68012283F83D20002318461E
:10277C000837BD4680BD000080B485B000AF7860DE
:10278C007B6893F83D30DBB2012B01D0012335E09F
:10279C007B68022283F83D207B681B68DA687B68C3
:1027AC001B6842F00102DA607B681B68164A934290
:1027BC0009D07B681B68B3F1804F04D07B681B6821
:1027CC00124A934211D17B681B689B6803F0070384
:1027DC00FB60FB68062B10D07B681B681A687B6853
:1027EC001B6842F001021A6007E07B681B681A68DC
:1027FC007B681B6842F001021A60002318461437EC
:10280C00BD4680BC704700BF002C01400004004056
:10281C0080B584B000AF78607B681B68DB68FB60B8
:10282C007B681B681B69BB60BB6803F00203002B51
:10283C0020D0FB6803F00203002B1BD07B681B68C5
:10284C006FF002021A617B6801221A777B681B68A1
:10285C009B6903F00303002B03D0786800F098F910
:10286C0005E0786800F08BF9786800F09AF97B68DD
:10287C0000221A77BB6803F00403002B20D0FB68FE
:10288C0003F00403002B1BD07B681B686FF0040261
:10289C001A617B6802221A777B681B689B6903F4B8
:1028AC004073002B03D0786800F072F905E078686B
:1028BC0000F065F9786800F074F97B6800221A77EB
:1028CC00BB6803F00803002B20D0FB6803F008035F
:1028DC00002B1BD07B681B686FF008021A617B68A9
:1028EC0004221A777B681B68DB6903F00303002B57
:1028FC0003D0786800F04CF905E0786800F03FF9F7
:10290C00786800F04EF97B6800221A77BB6803F0F8
:10291C001003002B20D0FB6803F01003002B1BD0FE
:10292C007B681B686FF010021A617B6808221A77AB
:10293C007B681B68DB6903F44073002B03D0786859
:10294C0000F026F905E0786800F019F9786800F0D5
:10295C0028F97B6800221A77BB6803F00103002B6F
:10296C000CD0FB6803F00103002B07D07B681B68BD
:10297C006FF001021A617868FEF796FCBB6803F0F1
:10298C008003002B0CD0FB6803F08003002B07D0D6
:10299C007B681B686FF080021A61786800F06FFA30
:1029AC00BB6803F04003002B0CD0FB6803F0400322
:1029BC00002B07D07B681B686FF040021A617868A7
:1029CC0000F0F8F8BB6803F02003002B0CD0FB6878
:1029DC0003F02003002B07D07B681B686FF02002EC
:1029EC001A61786800F042FA00BF1037BD4680BD0E
:1029FC0080B584B000AF786039600023FB737B68CE
:102A0C0093F83C30012B01D10223B4E07B68012206
:102A1C0083F83C207B68022283F83D207B681B688E
:102A2C009B68BB60BB6823F07703BB60BB6823F477
:102A3C007F43BB607B681B68BA689A603B681B6805
:102A4C00B3F5005F3ED0B3F5005F00F28780B3F5BD
:102A5C00805F00F08680B3F5805F7FD8702B1AD032
:102A6C00702B7BD8602B50D0602B77D8502B3CD060
:102A7C00502B73D8402B58D0402B6FD8302B64D0B0
:102A8C00302B6BD8202B60D0202B67D8002B5CD040
:102A9C00102B5AD062E07B6818683B6899683B68D9
:102AAC005A683B68DB6800F06AF97B681B689B68B6
:102ABC00BB60BB6843F07703BB607B681B68BA687C
:102ACC009A604FE07B6818683B6899683B685A6865
:102ADC003B68DB6800F053F97B681B689A687B687D
:102AEC001B6842F480429A603CE07B6818683B6843
:102AFC0059683B68DB681A4600F0CAF87B681B68AB
:102B0C005021184600F021F92CE07B6818683B68CE
:102B1C0059683B68DB681A4600F0E8F87B681B686C
:102B2C006021184600F011F91CE07B6818683B68BE
:102B3C0059683B68DB681A4600F0AAF87B681B688A
:102B4C004021184600F001F90CE07B681A683B68DC
:102B5C001B681946104600F0F8F803E00123FB73DC
:102B6C0000E000BF7B68012283F83D207B680022D7
:102B7C0083F83C20FB7B18461037BD4680BD80B4E3
:102B8C0083B000AF786000BF0C37BD4680BC704787
:102B9C0080B483B000AF786000BF0C37BD4680BCFA
:102BAC00704780B483B000AF786000BF0C37BD466F
:102BBC0080BC704780B483B000AF786000BF0C3726
:102BCC00BD4680BC7047000080B485B000AF786013
:102BDC0039607B681B68FB607B682B4A934207D08B
:102BEC007B68B3F1804F03D07B68284A934208D1AD
:102BFC00FB6823F07003FB603B685B68FA68134367
:102C0C00FB607B68204A934207D07B68B3F1804F0E
:102C1C0003D07B681D4A934208D1FB6823F44073B0
:102C2C00FB603B68DB68FA681343FB60FB6823F0CE
:102C3C0080023B685B691343FB607B68FA681A602F
:102C4C003B689A687B68DA623B681A687B689A62B0
:102C5C007B680D4A934203D13B681A697B681A63FF
:102C6C007B6801225A617B681B6903F00103002B0E
:102C7C0005D07B681B6923F001027B681A6100BFD9
:102C8C001437BD4680BC7047002C01400004004046
:102C9C0080B487B000AFF860B9607A60FB681B6ADB
:102CAC007B61FB681B6A23F00102FB681A62FB68FC
:102CBC009B693B613B6923F0F0033B617B681B0123
:102CCC003A6913433B617B6923F00A037B617A69A0
:102CDC00BB6813437B61FB683A699A61FB687A694C
:102CEC001A6200BF1C37BD4680BC704780B487B0E9
:102CFC0000AFF860B9607A60FB681B6A7B61FB68A7
:102D0C001B6A23F01002FB681A62FB689B693B612B
:102D1C003B6923F470433B617B681B033A691343A3
:102D2C003B617B6923F0A0037B61BB681B017A6963
:102D3C0013437B61FB683A699A61FB687A691A6292
:102D4C0000BF1C37BD4680BC704780B485B000AF57
:102D5C00786039607B689B68FB60FB6823F07003CC
:102D6C00FB603A68FB68134343F00703FB607B6826
:102D7C00FA689A6000BF1437BD4680BC704780B4B7
:102D8C0087B000AFF860B9607A603B60FB689B6805
:102D9C007B617B6923F47F437B613B681A027B6810
:102DAC001A43BB6813437A6913437B61FB687A69E6
:102DBC009A6000BF1C37BD4680BC704780B485B09C
:102DCC0000AF786039607B6893F83C30012B01D1FF
:102DDC00022341E07B68012283F83C207B680222BD
:102DEC0083F83D207B681B685B68FB607B681B6815
:102DFC009B68BB60FB6823F07003FB603B681B683F
:102E0C00FA681343FB607B681B68FA685A607B683E
:102E1C001B68144A934209D07B681B68B3F1804F3E
:102E2C0004D07B681B68104A93420CD1BB6823F01A
:102E3C008003BB603B685B68BA681343BB607B680C
:102E4C001B68BA689A607B68012283F83D207B6816
:102E5C00002283F83C20002318461437BD4680BC62
:102E6C00704700BF002C01400004004080B483B0C8
:102E7C0000AF786000BF0C37BD4680BC704780B493
:102E8C0083B000AF786000BF0C37BD4680BC704784
:102E9C0070B500260C4D0D4C641BA410A64209D134
:102EAC0000F022F800260A4D0A4C641BA410A6421E
:102EBC0005D170BD55F8043B98470136EEE755F83F
:102ECC00043B98470136F2E7302F0008302F0008FA
:102EDC00302F0008342F000803460244934200D1DF
:102EEC00704703F8011BF9E7F8B500BFF8BC08BC44
:102EFC009E467047F8B500BFF8BC08BC9E467047AC
:102F0C00000000000000000001020304060708098D
:102F1C0002030405060708090A0B0C0D0E0F10100E
:042F2C00010200009E
:042F30003101000863
:042F34000D01000883
:102F38000100000000000000000000000100000087
:102F48000000000000000000010000000000000078
:102F58000000000001000000000000000000000068
:102F6800C80000000100000001000000010000008E
:102F7800010000000100000005000000030000003F
:102F880002000000050000000300000000127A00A3
:082F9800100000000100000020
:040000050800187D5A
:00000001FF
