:020000040800F2
:1000000000280020D9150008C9120008CF120008E6
:10001000D5120008DB120008E11200080000000001
:10002000000000000000000000000000E7120008CF
:10003000F312000800000000FF1200080B13000874
:1000400021160008211600082116000821160008B4
:1000500021160008211600082116000821160008A4
:100060002116000821160008211600082116000894
:100070002116000821160008211600082116000884
:100080002116000821160008211600082116000874
:100090002116000821160008211600082116000864
:1000A0002116000821160008211600082116000854
:1000B000191300082116000800000000211600088E
:1000C00021160008000000000000000021160008B2
:1000D00000000000211600082116000800000000A2
:1000E0002116000821160008211600080000000053
:1000F0000000000000000000000000000000000000
:0C01000000000000000000005FF808F1A3
:10010C0010B5054C237833B9044B13B10448AFF345
:10011C0000800123237010BD70000020000000003F
:10012C00502C000808B5034B1BB103490348AFF32F
:10013C00008008BD0000000074000020502C000856
:10014C0080B584B000AFF860B9607A600F4AFB6884
:10015C0052F823200E49FB6841F823200D4AFB6816
:10016C0052F823200949FB6841F823207B689BB295
:10017C001946B86801F03AFD03461946054AFB6872
:10018C0042F8231000BF1037BD4680BD0C00002084
:10019C00000000201800002080B483B000AF78600D
:1001AC00094A7B6852F82330012B06D1064A7B683A
:1001BC00002142F82310012300E0002318460C37DD
:1001CC00BD4680BC704700BF8C00002080B582B05B
:1001DC0000AF102238490020FFF7B2FF2022364929
:1001EC000120FFF7ADFF402233490220FFF7A8FFA3
:1001FC0000237B6058E0314A7B6852F82320304959
:10020C007B6851F823309A424BD12D4A7B6852F8C7
:10021C0023202C497B6851F823309A4241D12A4A39
:10022C007B6852F8232027497B6851F823309A4287
:10023C0018D0244A7B6852F8232023497B6841F864
:10024C002320204A7B6852F82330002B29D11F4AE7
:10025C007B68012142F823101D4A7B68C82142F8B3
:10026C0023101EE0174A7B6852F82330002B18D15C
:10027C00174A7B6852F823305A1E15497B6841F89F
:10028C002320134A7B6852F82330002B09D10F4AE4
:10029C007B68012142F823100D4A7B68C82142F883
:1002AC0023107B6801337B607B68022BA3DD00BFCE
:1002BC0000BF0837BD4680BD00080140000000208B
:1002CC000C00002018000020240000208C000020CE
:1002DC003000002080B500AF9C4B1B68162B40F003
:1002EC002A819B4B1A689B4B1B681A449A4B1B68C0
:1002FC009A4208D0984B05221A60954B02221A603C
:10030C00944B03221A60954B1B68013B032B7DD841
:10031C0001A252F823F000BF350300085303000874
:10032C00D70300089503000801F000F88B4B02225C
:10033C001A60894B1B688A4A13604FF47A71022049
:10034C0000F016FF69E001F021F8162000F08EFC99
:10035C0000F044FD834B9B68012B59D14FF47A710B
:10036C00022000F005FF7E4B1B68013B7C4A1360AA
:10037C007B4B1B68002B4BDC764B1B68784A13605D
:10038C00764B04221A6043E001F060F8162000F06E
:10039C006DFC00F023FD734B9B68012B3AD14FF49D
:1003AC007A71022000F0E4FE6D4B1B68013B6C4A35
:1003BC0013606B4B1B68002B2CDC654B1B68684A6D
:1003CC001360664B03221A6024E001F00FF816202C
:1003DC0000F04CFC00F002FD624B9B68012B1BD122
:1003EC004FF47A71022000F0C3FE5D4B1B68013B99
:1003FC005B4A13605A4B1B68002B0DDC564B1B6879
:10040C00574A1360554B02221A6005E000BF04E006
:10041C0000BF02E000BF00E000BF534B1B68013B74
:10042C00062B00F28A8001A252F823F05504000832
:10043C004705000847050008470500087D0400082B
:10044C0001050008BF04000800F088FF162000F02A
:10045C000DFC00F0C3FC444B07221A603D4B1B689B
:10046C00424A13604FF47A71032000F081FE6BE076
:10047C0000F0A4FF162000F0F9FB00F0AFFC394BA4
:10048C00DB68012B5BD14FF47A71032000F070FE16
:10049C00364B1B68013B354A1360344B1B68002BF1
:1004AC004DDC2C4B1B68314A13602F4B07221A6012
:1004BC0045E000F0E3FF162000F0D8FB00F08EFCC6
:1004CC00284BDB68012B3CD14FF47A71032000F0F0
:1004DC004FFE264B1B68013B244A1360234B1B68C1
:1004EC00002B2EDC1A4B1B68204A13601E4B062275
:1004FC001A6026E000F092FF162000F0B7FB00F027
:10050C006DFC184BDB68012B1DD14FF47A71032065
:10051C0000F02EFE154B1B68013B144A1360134B65
:10052C001B68002B0FDC0C4B1B68104A13600E4B26
:10053C0005221A6007E000BF06E000BF04E000BF20
:10054C0002E000BF00E000BF80BD00BF48000020FB
:10055C005800002054000020500000203C000020D7
:10056C005C000020C400002040000020600000203F
:10057C0080B500AF334B1B68192B3ED0192B58DCC0
:10058C00172B02D0182B1CD053E0282000F0BEFFF4
:10059C002C4B1B68184600F069FB00F01FFC012077
:1005AC00FFF7FAFD0346002B45D0274B1B68622B47
:1005BC0003DC254B1B68013300E00123224A136046
:1005CC0039E0292000F0A2FF1E4B1B68184600F0F2
:1005DC004DFB00F003FC0120FFF7DEFD0346002B72
:1005EC002BD0194B1B68622B03DC174B1B68013398
:1005FC0000E00123144A13601FE02A2000F086FF5C
:10060C00104B1B68184600F031FB00F0E7FB012093
:10061C00FFF7C2FD0346002B11D00B4B1B68622B5E
:10062C0003DC094B1B68013300E00123064A13600D
:10063C0005E000BF04E000BF02E000BF00E000BF27
:10064C0000BF80BD48000020A800002080B500AF8E
:10065C005A4B1B68013B182B00F2A48001A252F8E4
:10066C0023F000BFD5060008B1070008B107000849
:10067C00B1070008B1070008B1070008B10700086E
:10068C00B1070008B1070008B1070008B10700085E
:10069C00B1070008B1070008B1070008B10700084E
:1006AC00B1070008B1070008B1070008B10700083E
:1006BC00B1070008B1070008DD060008FF060008B6
:1006CC00370700086F0700083C4B16221A6072E0CF
:1006DC000020FFF761FD0346002B65D0374B172236
:1006EC001A60374B1B68374A1360374B01221A606C
:1006FC005AE00020FFF750FD0346002B0AD02F4B89
:10070C0018221A60314B1B682E4A13602E4B0122A3
:10071C001A604BE00220FFF73FFD0346002B45D04B
:10072C00284B1B68264A136040E00020FFF734FD7D
:10073C000346002B0AD0214B19221A60244B1B684C
:10074C00204A1360204B01221A6031E00220FFF78F
:10075C0023FD0346002B2BD01A4B1B681B4A13603E
:10076C0026E00020FFF718FD0346002B0FD0134B9B
:10077C0016221A60174B01221A60174B01221A60BD
:10078C00164B01221A60104B01221A6012E0022053
:10079C00FFF702FD0346002B0CD00A4B1B680C4ADA
:1007AC00136007E000BF06E000BF04E000BF02E0FA
:1007BC0000BF00E000BF00BF80BD00BF48000020AC
:1007CC0050000020A80000204C0000205800002001
:1007DC00540000203C000020400000204400002079
:1007EC0080B582B000AF78607B68092B00F29E81E7
:1007FC0001A252F823F000BF2D0800087B08000866
:10080C00C90800081709000865090008B3090008A1
:10081C00010A00084F0A00089D0A0008EB0A0008AC
:10082C0000224FF40051C44801F0F7F900224FF4B4
:10083C008041C14801F0F1F900224FF40041BE485B
:10084C0001F0EBF900220121BC4801F0E6F900228D
:10085C000221BA4801F0E1F900220421B74801F065
:10086C00DCF901220821B54801F0D7F95FE101223A
:10087C004FF40051B04801F0D0F900224FF4804100
:10088C00AD4801F0CAF900224FF40041AA4801F02A
:10089C00C4F901220121A94801F0BFF9012202216A
:1008AC00A64801F0BAF901220421A44801F0B5F9D7
:1008BC0001220821A14801F0B0F938E100224FF4DF
:1008CC0000519D4801F0A9F900224FF480419A484B
:1008DC0001F0A3F901224FF40041974801F09DF972
:1008EC0000220121954801F098F900220221934839
:1008FC0001F093F901220421904801F08EF90022B5
:10090C0008218E4801F089F911E100224FF40051C1
:10091C00894801F082F900224FF48041864801F0A9
:10092C007CF900224FF40041834801F076F9002253
:10093C000121824801F071F9012202217F4801F066
:10094C006CF9012204217D4801F067F9002208218D
:10095C007A4801F062F9EAE001224FF4005176483E
:10096C0001F05BF900224FF48041734801F055F916
:10097C0000224FF40041704801F04FF9012201218F
:10098C006E4801F04AF9012202216C4801F045F948
:10099C0000220421694801F040F90022082167482F
:1009AC0001F03BF9C3E000224FF40051624801F022
:1009BC0034F901224FF480415F4801F02EF90022F6
:1009CC004FF400415C4801F028F9002201215B48FA
:1009DC0001F023F901220221584801F01EF90022EE
:1009EC000421564801F019F900220821534801F05E
:1009FC0014F99CE000224FF400514F4801F00DF91E
:100A0C0001224FF480414C4801F007F900224FF4C9
:100A1C000041494801F001F900220121474801F049
:100A2C00FCF800220221454801F0F7F800220421CD
:100A3C00424801F0F2F800220821404801F0EDF89C
:100A4C0075E000224FF400513B4801F0E6F800221B
:100A5C004FF48041384801F0E0F800224FF4004197
:100A6C00354801F0DAF801220121344801F0D5F8BB
:100A7C0001220221314801F0D0F8012204212F4833
:100A8C0001F0CBF8012208212C4801F0C6F84EE009
:100A9C0000224FF40051284801F0BFF800224FF417
:100AAC008041254801F0B9F800224FF4004122485A
:100ABC0001F0B3F800220121204801F0AEF8002229
:100ACC0002211E4801F0A9F8002204211B4801F064
:100ADC00A4F800220821194801F09FF827E0002211
:100AEC004FF40051144801F098F800224FF4804163
:100AFC00114801F092F800224FF400410E4801F029
:100B0C008CF8002201210D4801F087F80122022106
:100B1C000A4801F082F800220421084801F07DF80F
:100B2C0000220821054801F078F800E000BF00BF62
:100B3C000837BD4680BD00BF00080140000C0140D5
:100B4C0080B582B000AF78607B68032B00F28480A4
:100B5C0001A252F823F000BF750B0008B10B00087E
:100B6C00ED0B0008290C000800224FF480513D4881
:100B7C0001F053F801224FF400513A4801F04DF8BE
:100B8C0001224FF48041374801F047F801224FF41D
:100B9C000041344801F041F8334B1B681846FFF70D
:100BAC001FFE5AE001224FF480512E4801F035F817
:100BBC0000224FF400512B4801F02FF801224FF482
:100BCC008041284801F029F801224FF400412548C2
:100BDC0001F023F8244B5B681846FFF701FE3CE05C
:100BEC0001224FF480511F4801F017F801224FF4F5
:100BFC0000511C4801F011F800224FF480411948B3
:100C0C0001F00BF801224FF40041164801F005F8F1
:100C1C00154B9B681846FFF7E3FD1EE001224FF4CD
:100C2C008051104800F0F9FF01224FF400510D489B
:100C3C0000F0F3FF01224FF480410A4800F0EDFF71
:100C4C0000224FF40041074800F0E7FF064BDB6839
:100C5C001846FFF7C5FD00E000BF00BF0837BD46D2
:100C6C0080BD00BF000C01409800002080B483B010
:100C7C0000AF78607B68163B032B00F29E8001A2CC
:100C8C0052F823F0A10C0008070D0008470D0008CE
:100C9C00870D00084C4B1B684C4A82FB03129210C8
:100CAC00DB17D31A4A4A1360474B1968474B83FB2F
:100CBC0001239A10CB17D21A13469B0013445B00E6
:100CCC00CA1A434B5A60434B1B68404A82FB0312BF
:100CDC009210DB17D31A3E4A93603E4B19683B4B7C
:100CEC0083FB01239A10CB17D21A13469B00134493
:100CFC005B00CA1A364BDA6060E0374B1B68334A2C
:100D0C0082FB03129210DB17D31A314A1360324B59
:100D1C0019682E4B83FB01239A10CB17D21A13465A
:100D2C009B0013445B00CA1A294B5A60284B0022C3
:100D3C009A60274B0222DA6040E0274B1B68234A5B
:100D4C0082FB03129210DB17D31A214A1360224B39
:100D5C0019681E4B83FB01239A10CB17D21A13462A
:100D6C009B0013445B00CA1A194B5A60184B0022A3
:100D7C009A60174B0322DA6020E0174B1B68134A6A
:100D8C0082FB03129210DB17D31A114A1360124B19
:100D9C0019680E4B83FB01239A10CB17D21A1346FA
:100DAC009B0013445B00CA1A094B5A60084B002283
:100DBC009A60074B0422DA6000E000BF00BF0C37DA
:100DCC00BD4680BC704700BF5C000020676666664D
:100DDC009800002060000020A800002080B500AF23
:100DEC004D4B1B68013B202B00F28A8001A252F86C
:100DFC0023F000BF850E00080D0F00080D0F000832
:100E0C000D0F00080D0F00080D0F00080D0F000846
:100E1C000D0F00080D0F00080D0F00080D0F000836
:100E2C000D0F00080D0F00080D0F00080D0F000826
:100E3C000D0F00080D0F00080D0F00080D0F000816
:100E4C000D0F00080D0F00080D0F00080D0F000806
:100E5C000D0F00080D0F00080D0F00080D0F0008F6
:100E6C000D0F00080D0F0008950E0008B30E0008BA
:100E7C00D10E0008EF0E0008274B1E221A60FA2133
:100E8C00052000F075F944E00020FFF759FE234BD4
:100E9C005B69012B36D1FA21052000F069F91E4B54
:100EAC001F221A602EE00120FFF74AFE1B4B5B69E4
:100EBC00012B29D1FA21052000F05AF9164B2022DA
:100ECC001A6021E00220FFF73BFE144B5B69012BFB
:100EDC001CD1FA21052000F04BF90F4B21221A608E
:100EEC0014E00320FFF72CFE0C4B5B69012B0FD198
:100EFC00FA21052000F03CF9074B1E221A6007E08E
:100F0C0000BF06E000BF04E000BF02E000BF00E04D
:100F1C0000BF00BF80BD00BF44000020C400002003
:100F2C0080B500AF00F078FB00F026F800F0ACF8CC
:100F3C0000F05EF80D4801F0CDFA4FF4FA71002084
:100F4C0000F016F90A4B1B68012B08D10221094845
:100F5C0000F07BFE4FF4FA71002000F009F9FFF766
:100F6C0075FBFFF7B7F9FFF703FBEBE7DC0000209D
:100F7C00C40000200008014080B590B000AF07F11C
:100F8C00180328220021184601F054FE3B1D0022B4
:100F9C001A605A609A60DA601A610223BB610123FD
:100FAC00BB621023FB6200237B6307F11803184616
:100FBC0000F064FE0346002B01D000F0D3F80F23A1
:100FCC007B600023BB600023FB6000233B6100239C
:100FDC007B613B1D0021184601F0D0F80346002B25
:100FEC0001D000F0BFF800BF4037BD4680BD000007
:100FFC0080B586B000AF07F1080300221A605A6072
:10100C009A60DA603B4600221A605A601D4B4FF022
:10101C0080421A601B4B41F63F725A60194B0022FA
:10102C009A60184B0922DA60164B00221A61154B94
:10103C0000229A61134801F0FDF90346002B01D000
:10104C0000F090F84FF48053BB6007F10803194689
:10105C000C4801F07BFB0346002B01D000F082F81A
:10106C0000233B6000237B603B461946054801F09A
:10107C0053FD0346002B01D000F074F800BF183765
:10108C00BD4680BDDC00002080B586B000AF07F106
:10109C00080300221A605A609A60DA60284B9B6938
:1010AC00274A43F004039361254B9B6903F0040327
:1010BC007B607B68224B9B69214A43F00803936158
:1010CC001F4B9B6903F008033B603B6800224FF603
:1010DC008E711C4800F0A1FD00224FF20F011A483E
:1010EC0000F09BFD4FF68E73BB600123FB60002369
:1010FC003B6102237B6107F108031946114800F09C
:10110C00FBFB7023BB600023FB6001233B6107F1F9
:10111C00080319460B4800F0EFFB4FF20F03BB60BE
:10112C000123FB6000233B6102237B6107F1080371
:10113C001946054800F0E0FB00BF1837BD4680BDDE
:10114C000010024000080140000C014080B582B044
:10115C0000AF786000F02CF8FFF738F800BF0837C4
:10116C00BD4680BD80B400AF72B600BFFEE7000084
:10117C0080B483B000AF786039600A4A7B68002184
:10118C0042F823103B68084A82FB03129210DB17CB
:10119C00D21A06497B6841F8232000BF0C37BD46A4
:1011AC0080BC7047C400002067666666AC000020F7
:1011BC0080B483B000AF00237B601CE0124A7B68D4
:1011CC0052F82330002B13DD0F4A7B6852F8233082
:1011DC005A1E0D497B6841F823200B4A7B6852F854
:1011EC002330002B04DC094A7B68012142F82310D0
:1011FC007B6801337B607B68052BDFDD00BF00BFA4
:10120C000C37BD4680BC7047AC000020C4000020E9
:10121C0080B485B000AF154B9B69144A43F00103B1
:10122C009361124B9B6903F00103BB60BB680F4BCE
:10123C00DB690E4A43F08053D3610C4BDB6903F03E
:10124C0080537B607B680A4B5B68FB60FB6823F018
:10125C00E063FB60FB6843F08063FB60044AFB685F
:10126C00536000BF1437BD4680BC7047001002406D
:10127C000000014080B584B000AF78607B681B68CB
:10128C00B3F1804F13D10C4BDB690B4A43F00103D4
:10129C00D361094BDB6903F00103FB60FB6800229F
:1012AC0000211C2000F0F1FA1C2000F00AFB00BF0A
:1012BC001037BD4680BD00BF0010024080B400AFA7
:1012CC00FEE780B400AFFEE780B400AFFEE780B469
:1012DC0000AFFEE780B400AFFEE780B400AF00BF04
:1012EC00BD4680BC704780B400AF00BFBD4680BC1B
:1012FC00704780B400AF00BFBD4680BC704780B55E
:10130C0000AF00F0CFF900BF80BD000080B500AF8A
:10131C00024801F02BF900BF80BD00BFDC000020AB
:10132C0080B400AF00BFBD4680BC704780B500AF35
:10133C0000228021084800F070FC00224FF48071DC
:10134C00054800F06AFC00224FF40071024800F0DE
:10135C0064FC00BF80BD00BF0008014080B500AF39
:10136C0000224FF48061084800F057FC00224FF433
:10137C000061054800F051FC00224FF480510248F6
:10138C0000F04BFC00BF80BD0008014080B500AFF1
:10139C0001228021084800F040FC00224FF48071AB
:1013AC00054800F03AFC00224FF40071024800F0AE
:1013BC0034FC00BF80BD00BF0008014080B500AF09
:1013CC0001224FF48061084800F027FC00224FF402
:1013DC000061054800F021FC00224FF480510248C6
:1013EC0000F01BFC00BF80BD0008014080B500AFC1
:1013FC0000228021084800F010FC01224FF480717B
:10140C00054800F00AFC00224FF40071024800F07D
:10141C0004FC00BF80BD00BF0008014080B500AFD8
:10142C0000224FF48061084800F0F7FB01224FF4D2
:10143C000061054800F0F1FB00224FF48051024896
:10144C0000F0EBFB00BF80BD0008014080B500AF91
:10145C0000228021084800F0E0FB00224FF480714C
:10146C00054800F0DAFB01224FF40071024800F04D
:10147C00D4FB00BF80BD00BF0008014080B500AFA9
:10148C0000224FF48061084800F0C7FB00224FF4A3
:10149C000061054800F0C1FB01224FF48051024865
:1014AC0000F0BBFB00BF80BD0008014080B500AF61
:1014BC008021054800F0C9FB4FF48061024800F020
:1014CC00C4FB00BF80BD00BF0008014080B500AF69
:1014DC004FF48071044800F0B8FB4FF400610248EF
:1014EC0000F0B3FB00BF80BD0008014080B500AF29
:1014FC004FF40071044800F0A8FB4FF480510248EF
:10150C0000F0A3FB00BF80BD0008014080B582B095
:10151C0000AF78602B4B1B682A2B3BD02A2B44DC6A
:10152C00292B2CD0292B40DC012B02D0282B1BD0B3
:10153C003BE0FFF7FBFEFFF711FFFA210420FFF75A
:10154C0017FE7B68282B02D11E4B28221A607B6861
:10155C00292B02D11B4B29221A607B682A2B26D1FE
:10156C00184B2A221A6022E0174B1B69012B20D141
:10157C00FA210420FFF7FCFDFFF798FF19E0124B4E
:10158C001B69012B17D1FA210420FFF7F1FDFFF79E
:10159C009DFF10E00C4B1B69012B0ED1FA2104208E
:1015AC00FFF7E6FDFFF7A2FF07E000BF06E000BF74
:1015BC0004E000BF02E000BF00E000BF00BF08373E
:1015CC00BD4680BD4C000020C4000020FFF7A8FEE3
:1015DC000B480C490C4A002302E0D458C450043385
:1015EC00C4188C42F9D3094A094C002301E013605A
:1015FC000432A242FBD301F0F9FAFFF791FC7047D9
:10160C000000002070000020942C000870000020C6
:10161C0028010020FEE7000080B500AF084B1B68D6
:10162C00074A43F010031360032000F023F90F2046
:10163C0000F008F8FFF7ECFD0023184680BD00BF52
:10164C000020024080B582B000AF7860124B1A685F
:10165C00124B1B7819464FF47A73B3FBF1F3B2FBC0
:10166C00F3F3184600F03BF90346002B01D001239D
:10167C000EE07B680F2B0AD8002279684FF0FF3000
:10168C0000F003F9064A7B681360002300E0012395
:10169C0018460837BD4680BD640000206C00002051
:1016AC006800002080B400AF054B1B781A46054B30
:1016BC001B681344034A136000BFBD4680BC7047CF
:1016CC006C0000202401002080B400AF024B1B688A
:1016DC001846BD4680BC70472401002080B485B0FC
:1016EC0000AF78607B6803F00703FB600C4BDB6892
:1016FC00BB60BA684FF6FF031340BB60FB681A026D
:10170C00BB68134343F0BF6343F40033BB60044A2C
:10171C00BB68D36000BF1437BD4680BC704700BFA8
:10172C0000ED00E080B400AF044BDB681B0A03F053
:10173C0007031846BD4680BC704700BF00ED00E0B3
:10174C0080B483B000AF0346FB7197F90730002BD0
:10175C000BDBFB7903F01F02064997F907305B0995
:10176C00012000FA02F241F8232000BF0C37BD46DD
:10177C0080BC704700E100E080B483B000AF03464A
:10178C003960FB7197F90730002B0ADB3B68DAB242
:10179C000C4997F907301201D2B20B4483F800239D
:1017AC000AE03B68DAB20849FB7903F00F03043B0B
:1017BC001201D2B20B441A7600BF0C37BD4680BC66
:1017CC00704700BF00E100E000ED00E080B489B09C
:1017DC0000AFF860B9607A60FB6803F00703FB6147
:1017EC00FB69C3F10703042B28BF0423BB61FB690E
:1017FC000433062B02D9FB69033B00E000237B6119
:10180C004FF0FF32BB6902FA03F3DA43BB681A40AC
:10181C007B699A404FF0FF317B6901FA03F3D9439E
:10182C007B680B40134318462437BD4680BC704779
:10183C0080B582B000AF78607B68013BB3F1807FEC
:10184C0001D301230FE00A4A7B68013B53600F214F
:10185C004FF0FF30FFF790FF054B00229A60044BCE
:10186C0007221A60002318460837BD4680BD00BF0A
:10187C0010E000E080B582B000AF78607868FFF7C8
:10188C002DFF00BF0837BD4680BD80B586B000AFC8
:10189C000346B9607A60FB7300237B61FFF742FF5C
:1018AC0078617A68B9687869FFF790FF024697F912
:1018BC000F3011461846FFF75FFF00BF1837BD46C3
:1018CC0080BD80B582B000AF0346FB7197F907303D
:1018DC001846FFF735FF00BF0837BD4680BD80B501
:1018EC0082B000AF78607868FFF7A2FF0346184615
:1018FC000837BD4680BD000080B48BB000AF786067
:10190C00396000237B6200233B6248E101227B6A41
:10191C0002FA03F3FB613B681B68FA691340BB6175
:10192C00BA69FB699A4240F037813B685B68A34A0D
:10193C0093425ED0A14A934275D8A14A934258D0A3
:10194C009F4A93426FD89F4A934252D09D4A9342EA
:10195C0069D89D4A93424CD09B4A934263D89B4A88
:10196C00934246D0994A93425DD8122B2AD8122B17
:10197C0059D801A252F823F0FF190008D919000810
:10198C00EB1900082D1A0008331A0008331A000846
:10199C00331A0008331A0008331A0008331A0008E7
:1019AC00331A0008331A0008331A0008331A0008D7
:1019BC00331A0008331A0008331A0008E11900081A
:1019CC00F5190008824A934213D02CE03B68DB687F
:1019DC003B6229E03B68DB6804333B6224E03B68F4
:1019EC00DB6808333B621FE03B68DB680C333B620F
:1019FC001AE03B689B68002B02D104233B6213E086
:101A0C003B689B68012B05D108233B627B68FA6914
:101A1C001A6109E008233B627B68FA695A6103E0AA
:101A2C0000233B6200E000BFBB69FF2B01D87B6841
:101A3C0001E07B6804337B61BB69FF2B02D87B6AB6
:101A4C009B0002E07B6A083B9B003B617B691A6848
:101A5C000F213B6901FA03F3DB431A40396A3B69F6
:101A6C0001FA03F31A437B691A603B685B6803F065
:101A7C008053002B00F09080564B9B69554A43F0E5
:101A8C0001039361534B9B6903F00103BB60BB687B
:101A9C00514A7B6A9B08023352F82330FB607B6A05
:101AAC0003F003039B000F2202FA03F3DB43FA68F3
:101ABC001340FB607B68494A93420DD07B68484ACF
:101ACC00934207D07B68474A934201D1022304E03A
:101ADC00032302E0012300E000237A6A02F00302F0
:101AEC0092009340FA681343FB603B497B6A9B0866
:101AFC000233FA6841F823203B685B6803F48013D7
:101B0C00002B06D0384B9A683749BB6913438B605E
:101B1C0006E0354B9A68BB69DB43334913408B6055
:101B2C003B685B6803F40013002B06D02E4BDA687D
:101B3C002D49BB691343CB6006E02B4BDA68BB69BC
:101B4C00DB4329491340CB603B685B6803F40033EB
:101B5C00002B06D0244B5A682349BB6913434B60B6
:101B6C0006E0214B5A68BB69DB431F4913404B60AD
:101B7C003B685B6803F48033002B06D01A4B1A6861
:101B8C001949BB6913430B6006E0174B1A68BB6914
:101B9C00DB43154913400B607B6A01337B623B6866
:101BAC001A687B6A22FA03F3002B7FF4AFAE00BFF6
:101BBC0000BF2C37BD4680BC704700BF0000321000
:101BCC000000311000002210000021100000121043
:101BDC0000001110001002400000014000080140FC
:101BEC00000C0140001001400004014080B485B09D
:101BFC0000AF78600B467B807B689A687B881340CB
:101C0C00002B02D00123FB7301E00023FB73FB7B51
:101C1C0018461437BD4680BC704780B483B000AF03
:101C2C0078600B467B8013467B707B78002B03D04F
:101C3C007A887B681A6103E07B881A047B681A61D6
:101C4C0000BF0C37BD4680BC704780B485B000AF78
:101C5C0078600B467B807B68DB68FB607A88FB686E
:101C6C0013401A04FB68D9437B880B401A437B68EA
:101C7C001A6100BF1437BD4680BC704780B586B072
:101C8C0000AF78607B68002B01D101236CE27B688C
:101C9C001B6803F00103002B00F08780924B5B68FC
:101CAC0003F00C03042B0CD08F4B5B6803F00C037C
:101CBC00082B12D18C4B5B6803F48033B3F5803F57
:101CCC000BD1894B1B6803F40033002B6CD07B6861
:101CDC005B68002B68D1012346E27B685B68B3F537
:101CEC00803F06D1804B1B687F4A43F480331360DE
:101CFC002EE07B685B68002B0CD17B4B1B687A4A0F
:101D0C0023F480331360784B1B68774A23F48023C9
:101D1C0013601DE07B685B68B3F5A02F0CD1724B90
:101D2C001B68714A43F4802313606F4B1B686E4A27
:101D3C0043F4803313600BE06B4B1B686A4A23F44B
:101D4C0080331360684B1B68674A23F4802313604D
:101D5C007B685B68002B13D0FFF7B6FC386108E09A
:101D6C00FFF7B2FC02463B69D31A642B01D903235B
:101D7C00FAE15D4B1B6803F40033002BF0D014E048
:101D8C00FFF7A2FC386108E0FFF79EFC02463B69B6
:101D9C00D31A642B01D90323E6E1534B1B6803F4DC
:101DAC000033002BF0D100E000BF7B681B6803F010
:101DBC000203002B63D04C4B5B6803F00C03002B2D
:101DCC000BD0494B5B6803F00C03082B1CD1464B22
:101DDC005B6803F48033002B16D1434B1B6803F074
:101DEC000203002B05D07B681B69012B01D001235A
:101DFC00BAE13D4B1B6823F0F8027B685B69DB00A2
:101E0C00394913430B603AE07B681B69002B20D0E7
:101E1C00364B01221A60FFF757FC386108E0FFF7D8
:101E2C0053FC02463B69D31A022B01D903239BE1D5
:101E3C002D4B1B6803F00203002BF0D02A4B1B68C0
:101E4C0023F0F8027B685B69DB00274913430B60C6
:101E5C0015E0264B00221A60FFF736FC386108E0CB
:101E6C00FFF732FC02463B69D31A022B01D903233C
:101E7C007AE11D4B1B6803F00203002BF0D17B6849
:101E8C001B6803F00803002B3AD07B689B69002B7E
:101E9C0019D0174B01221A60FFF716FC386108E0C5
:101EAC00FFF712FC02463B69D31A022B01D903231C
:101EBC005AE10D4B5B6A03F00203002BF0D00120BA
:101ECC0000F09AFA1CE00A4B00221A60FFF7FCFBA8
:101EDC0038610FE0FFF7F8FB02463B69D31A022B7F
:101EEC0008D9032340E100BF001002400000424229
:101EFC00800442429E4B5B6A03F00203002BE9D143
:101F0C007B681B6803F00403002B00F0A680002301
:101F1C00FB75974BDB6903F08053002B0DD1944B71
:101F2C00DB69934A43F08053D361914BDB6903F037
:101F3C008053BB60BB680123FB758E4B1B6803F49D
:101F4C008073002B18D18B4B1B688A4A43F4807327
:101F5C001360FFF7B9FB386108E0FFF7B5FB0246E9
:101F6C003B69D31A642B01D90323FDE0814B1B6819
:101F7C0003F48073002BF0D07B68DB68012B06D157
:101F8C007B4B1B6A7A4A43F0010313622DE07B689A
:101F9C00DB68002B0CD1764B1B6A754A23F00103CE
:101FAC001362734B1B6A724A23F0040313621CE026
:101FBC007B68DB68052B0CD16D4B1B6A6C4A43F0BC
:101FCC00040313626A4B1B6A694A43F001031362F0
:101FDC000BE0674B1B6A664A23F001031362644BE8
:101FEC001B6A634A23F0040313627B68DB68002BD3
:101FFC0015D0FFF769FB38610AE0FFF765FB024675
:10200C003B69D31A41F28832934201D90323ABE0E6
:10201C00574B1B6A03F00203002BEED014E0FFF7C2
:10202C0053FB38610AE0FFF74FFB02463B69D31ABA
:10203C0041F28832934201D9032395E04C4B1B6A41
:10204C0003F00203002BEED1FB7D012B05D1484B95
:10205C00DB69474A23F08053D3617B68DB69002B33
:10206C0000F08180424B5B6803F00C03082B61D0BD
:10207C007B68DB69022B46D13F4B00221A60FFF7CD
:10208C0023FB386108E0FFF71FFB02463B69D31ABC
:10209C00022B01D9032367E0354B1B6803F0007357
:1020AC00002BF0D17B681B6AB3F5803F08D1304B15
:1020BC005B6823F400327B689B682D4913434B60AB
:1020CC002B4B5B6823F474127B68196A7B685B6A20
:1020DC000B43274913434B60274B01221A60FFF730
:1020EC00F3FA386108E0FFF7EFFA02463B69D31ABE
:1020FC00022B01D9032337E01D4B1B6803F000733F
:10210C00002BF0D02FE01C4B00221A60FFF7DCFAFA
:10211C00386108E0FFF7D8FA02463B69D31A022B64
:10212C0001D9032320E0124B1B6803F00073002B32
:10213C00F0D118E07B68DB69012B01D1012313E09E
:10214C000B4B5B68FB60FB6803F480327B681B6A9B
:10215C009A4206D1FB6803F470127B685B6A9A4260
:10216C0001D0012300E0002318461837BD4680BD7E
:10217C0000100240007000406000424280B584B004
:10218C0000AF786039607B68002B01D10123D0E06F
:10219C006A4B1B6803F007033A689A4210D9674BE5
:1021AC001B6823F0070265493B6813430B60634BC4
:1021BC001B6803F007033A689A4201D00123B8E088
:1021CC007B681B6803F00203002B20D07B681B6824
:1021DC0003F00403002B05D0594B5B68584A43F4B9
:1021EC00E06353607B681B6803F00803002B05D089
:1021FC00534B5B68524A43F460535360504B5B68DB
:10220C0023F0F0027B689B684D4913434B607B685D
:10221C001B6803F00103002B40D07B685B68012B2B
:10222C0007D1474B1B6803F40033002B15D1012356
:10223C007FE07B685B68022B07D1414B1B6803F086
:10224C000073002B09D1012373E03D4B1B6803F095
:10225C000203002B01D101236BE0394B5B6823F0A7
:10226C0003027B685B68364913434B60FFF72CFA1B
:10227C00F8600AE0FFF728FA0246FB68D31A41F22D
:10228C008832934201D9032353E02D4B5B6803F052
:10229C000C027B685B689B009A42EBD1274B1B6856
:1022AC0003F007033A689A4210D2244B1B6823F0C0
:1022BC00070222493B6813430B60204B1B6803F059
:1022CC0007033A689A4201D0012332E07B681B680D
:1022DC0003F00403002B08D0194B5B6823F4E06275
:1022EC007B68DB68164913434B607B681B6803F003
:1022FC000803002B09D0124B5B6823F460527B68F7
:10230C001B69DB000E4913434B6000F021F80246B9
:10231C000B4B5B681B0903F00F030A49CB5C22FAD9
:10232C0003F3094A1360094B1B681846FFF78AF937
:10233C00002318461037BD4680BD00BF0020024068
:10234C0000100240682C0008640000206800002087
:10235C0080B487B000AF0023FB600023BB60002378
:10236C007B6100237B6000233B611E4B5B68FB6041
:10237C00FB6803F00C03042B02D0082B03D027E0DE
:10238C00194B3B6127E0FB689B0C03F00F03174ACA
:10239C00D35C7B60FB6803F48033002B10D0114BB3
:1023AC005B685B0C03F00103114AD35CBB607B6878
:1023BC000D4A02FB03F2BB68B2FBF3F37B6104E052
:1023CC007B680C4A02FB03F37B617B693B6102E097
:1023DC00054B3B6100BF3B6918461C37BD4680BCB2
:1023EC00704700BF0010024000127A00782C0008E1
:1023FC00882C000800093D0080B485B000AF7860DF
:10240C000A4B1B680A4AA2FB03235B0A7A6802FB8D
:10241C0003F3FB6000BFFB685A1EFA60002BF9D176
:10242C0000BF00BF1437BD4680BC7047640000205D
:10243C00D34D621080B582B000AF78607B68002B02
:10244C0001D1012341E07B6893F83D30DBB2002BD6
:10245C0006D17B68002283F83C207868FEF70AFFDF
:10246C007B68022283F83D207B681A687B68043302
:10247C001946104600F056FA7B68012283F8462074
:10248C007B68012283F83E207B68012283F83F2081
:10249C007B68012283F840207B68012283F841206D
:1024AC007B68012283F842207B68012283F8432059
:1024BC007B68012283F844207B68012283F8452045
:1024CC007B68012283F83D20002318460837BD465F
:1024DC0080BD000080B485B000AF78607B6893F855
:1024EC003D30DBB2012B01D0012335E07B680222A9
:1024FC0083F83D207B681B68DA687B681B6842F0B8
:10250C000102DA607B681B68164A934209D07B682B
:10251C001B68B3F1804F04D07B681B68124A93424E
:10252C0011D17B681B689B6803F00703FB60FB6899
:10253C00062B10D07B681B681A687B681B6842F0FE
:10254C0001021A6007E07B681B681A687B681B68CD
:10255C0042F001021A60002318461437BD4680BCB5
:10256C00704700BF002C01400004004080B584B0CF
:10257C0000AF78607B681B68DB68FB607B681B685E
:10258C001B69BB60BB6803F00203002B20D0FB6807
:10259C0003F00203002B1BD07B681B686FF0020258
:1025AC001A617B6801221A777B681B689B6903F0B0
:1025BC000303002B03D0786800F098F905E07868E5
:1025CC0000F08BF9786800F09AF97B6800221A7792
:1025DC00BB6803F00403002B20D0FB6803F004035A
:1025EC00002B1BD07B681B686FF004021A617B68A0
:1025FC0002221A777B681B689B6903F44073002BDB
:10260C0003D0786800F072F905E0786800F065F99D
:10261C00786800F074F97B6800221A77BB6803F0C5
:10262C000803002B20D0FB6803F00803002B1BD001
:10263C007B681B686FF008021A617B6804221A77AA
:10264C007B681B68DB6903F00303002B03D07868FD
:10265C0000F04CF905E0786800F03FF9786800F07C
:10266C004EF97B6800221A77BB6803F01003002B2D
:10267C0020D0FB6803F01003002B1BD07B681B6879
:10268C006FF010021A617B6808221A777B681B684E
:10269C00DB6903F44073002B03D0786800F026F953
:1026AC0005E0786800F019F9786800F028F97B6883
:1026BC0000221A77BB6803F00103002B0CD0FB68D7
:1026CC0003F00103002B07D07B681B686FF001023D
:1026DC001A617868FEF73AFDBB6803F08003002BA3
:1026EC000CD0FB6803F08003002B07D07B681B68C1
:1026FC006FF080021A61786800F06FFABB6803F023
:10270C004003002B0CD0FB6803F04003002B07D0D8
:10271C007B681B686FF040021A61786800F0F8F86B
:10272C00BB6803F02003002B0CD0FB6803F02003E4
:10273C00002B07D07B681B686FF020021A61786849
:10274C0000F042FA00BF1037BD4680BD80B584B0A2
:10275C0000AF786039600023FB737B6893F83C30E2
:10276C00012B01D10223B4E07B68012283F83C20C9
:10277C007B68022283F83D207B681B689B68BB60EA
:10278C00BB6823F07703BB60BB6823F47F43BB605B
:10279C007B681B68BA689A603B681B68B3F5005F7E
:1027AC003ED0B3F5005F00F28780B3F5805F00F098
:1027BC008680B3F5805F7FD8702B1AD0702B7BD8B6
:1027CC00602B50D0602B77D8502B3CD0502B73D82B
:1027DC00402B58D0402B6FD8302B64D0302B6BD87B
:1027EC00202B60D0202B67D8002B5CD0102B5AD01C
:1027FC0062E07B6818683B6899683B685A683B687C
:10280C00DB6800F06AF97B681B689B68BB60BB687F
:10281C0043F07703BB607B681B68BA689A604FE033
:10282C007B6818683B6899683B685A683B68DB684A
:10283C0000F053F97B681B689A687B681B6842F44C
:10284C0080429A603CE07B6818683B6859683B683A
:10285C00DB681A4600F0CAF87B681B6850211846E2
:10286C0000F021F92CE07B6818683B6859683B68DC
:10287C00DB681A4600F0E8F87B681B686021184694
:10288C0000F011F91CE07B6818683B6859683B68DC
:10289C00DB681A4600F0AAF87B681B6840211846D2
:1028AC0000F001F90CE07B681A683B681B6819465C
:1028BC00104600F0F8F803E00123FB7300E000BFC2
:1028CC007B68012283F83D207B68002283F83C2042
:1028DC00FB7B18461037BD4680BD80B483B000AF7B
:1028EC00786000BF0C37BD4680BC704780B483B0A5
:1028FC0000AF786000BF0C37BD4680BC704780B419
:10290C0083B000AF786000BF0C37BD4680BC704709
:10291C0080B483B000AF786000BF0C37BD4680BC7C
:10292C007047000080B485B000AF786039607B6878
:10293C001B68FB607B682B4A934207D07B68B3F122
:10294C00804F03D07B68284A934208D1FB6823F060
:10295C007003FB603B685B68FA681343FB607B6841
:10296C00204A934207D07B68B3F1804F03D07B6839
:10297C001D4A934208D1FB6823F44073FB603B680B
:10298C00DB68FA681343FB60FB6823F080023B684A
:10299C005B691343FB607B68FA681A603B689A6852
:1029AC007B68DA623B681A687B689A627B680D4ABE
:1029BC00934203D13B681A697B681A637B680122D6
:1029CC005A617B681B6903F00103002B05D07B68FF
:1029DC001B6923F001027B681A6100BF1437BD46E6
:1029EC0080BC7047002C01400004004080B487B0CC
:1029FC0000AFF860B9607A60FB681B6A7B61FB68AA
:102A0C001B6A23F00102FB681A62FB689B693B613D
:102A1C003B6923F0F0033B617B681B013A6913436C
:102A2C003B617B6923F00A037B617A69BB681343C2
:102A3C007B61FB683A699A61FB687A691A6200BF2C
:102A4C001C37BD4680BC704780B487B000AFF860BF
:102A5C00B9607A60FB681B6A7B61FB681B6A23F0B8
:102A6C001002FB681A62FB689B693B613B6923F4AB
:102A7C0070433B617B681B033A6913433B617B6981
:102A8C0023F0A0037B61BB681B017A6913437B6154
:102A9C00FB683A699A61FB687A691A6200BF1C3755
:102AAC00BD4680BC704780B485B000AF786039609B
:102ABC007B689B68FB60FB6823F07003FB603A68E3
:102ACC00FB68134343F00703FB607B68FA689A606A
:102ADC0000BF1437BD4680BC704780B487B000AFD0
:102AEC00F860B9607A603B60FB689B687B617B69CE
:102AFC0023F47F437B613B681A027B681A43BB68F3
:102B0C0013437A6913437B61FB687A699A6000BF4F
:102B1C001C37BD4680BC704780B485B000AF786070
:102B2C0039607B6893F83C30012B01D1022341E0E2
:102B3C007B68012283F83C207B68022283F83D20CD
:102B4C007B681B685B68FB607B681B689B68BB6071
:102B5C00FB6823F07003FB603B681B68FA68134347
:102B6C00FB607B681B68FA685A607B681B68144AB8
:102B7C00934209D07B681B68B3F1804F04D07B680B
:102B8C001B68104A93420CD1BB6823F08003BB60D6
:102B9C003B685B68BA681343BB607B681B68BA68A8
:102BAC009A607B68012283F83D207B68002283F8C1
:102BBC003C20002318461437BD4680BC704700BF2C
:102BCC00002C01400004004080B483B000AF78605A
:102BDC0000BF0C37BD4680BC704780B483B000AFDB
:102BEC00786000BF0C37BD4680BC704770B50026BE
:102BFC000C4D0D4C641BA410A64209D100F022F818
:102C0C0000260A4D0A4C641BA410A64205D170BDC7
:102C1C0055F8043B98470136EEE755F8043B9847C6
:102C2C000136F2E78C2C00088C2C00088C2C000848
:102C3C00902C000803460244934200D1704703F8DD
:102C4C00011BF9E7F8B500BFF8BC08BC9E467047FD
:0C2C5C00F8B500BFF8BC08BC9E467047ED
:102C68000000000000000000010203040607080934
:102C780002030405060708090A0B0C0D0E0F1010B5
:042C88000102000045
:042C8C00310100080A
:042C90000D0100082A
:102C9400010000000000000000000000010000002E
:102CA400000000000000000001000000000000001F
:102CB400000000000100000000000000000000000F
:102CC400C800000000000000000000000100000037
:102CD40001000000010000000100000001000000EC
:102CE40005000000030000000200000005000000D1
:102CF4000300000000127A00100000000100000030
:04000005080015D901
:00000001FF
