:020000040800F2
:1000000000280020C9180008891500088F1500086D
:10001000951500089B150008A115000800000000B8
:10002000000000000000000000000000A71500080C
:10003000B315000800000000BF150008CB1500082C
:1000400011190008111900081119000811190008E8
:1000500011190008111900081119000811190008D8
:1000600011190008111900081119000811190008C8
:1000700011190008111900081119000811190008B8
:1000800011190008111900081119000811190008A8
:100090001119000811190008111900081119000898
:1000A0001119000811190008111900081119000888
:1000B000D9150008111900080000000011190008E6
:1000C00011190008000000000000000011190008CC
:1000D00000000000111900081119000800000000BC
:1000E000111900081119000811190008000000007A
:1000F0000000000000000000000000000000000000
:0C01000000000000000000005FF808F1A3
:10010C0010B5054C237833B9044B13B10448AFF345
:10011C0000800123237010BD680000200000000047
:10012C00402F000808B5034B1BB103490348AFF33C
:10013C00008008BD000000006C000020402F00086B
:10014C0080B400AF064B1B68012B04D1044B00227A
:10015C001A60012300E000231846BD4680BC70479E
:10016C008400002080B400AF064B1B68012B04D127
:10017C00044B00221A60012300E000231846BD4600
:10018C0080BC70478800002080B400AF064B1B6811
:10019C00012B04D1044B00221A60012300E0002340
:1001AC001846BD4680BC70478C00002080B582B0DC
:1001BC0000AF00237B601CE1924A7B6852F823203D
:1001CC0091497B6841F82320904A7B6852F82320A0
:1001DC008C497B6841F823207B68002B58D1102177
:1001EC008B4801F07BFE03461946884A7B6842F82F
:1001FC002310854A7B6852F8232082497B6851F88A
:10020C0023309A4240F0F2807E4A7B6852F82320D9
:10021C007E497B6851F823309A4240F0E7807D4A52
:10022C007B6852F8232079497B6851F823309A4235
:10023C0015D0764A7B6852F8232076497B6841F8C2
:10024C002320724A7B6852F82330002B40F0CE807A
:10025C00714B01221A60714BC8221A60C6E06F4BB9
:10026C001B68013B6D4A13606C4B1B68002B40F004
:10027C00BD80664A7B6852F82330002B04D1654A56
:10028C007B68012142F82310644BC8221A60ADE050
:10029C007B68012B56D120215D4801F01FFE0346DF
:1002AC0019465A4A7B6842F82310574A7B6852F821
:1002BC00232054497B6851F823309A4240F09680B1
:1002CC00504A7B6852F8232050497B6851F8233000
:1002DC009A4240F08B804F4A7B6852F823204B495E
:1002EC007B6851F823309A4214D0484A7B6852F804
:1002FC00232048497B6841F82320444A7B6852F804
:10030C002330002B72D1464B01221A60434BC8227A
:10031C001A606BE0414B1B68013B404A13603F4B3A
:10032C001B68002B62D1394A7B6852F82330002BB2
:10033C0004D1384A7B68012142F82310374BC8227C
:10034C001A6053E04021324801F0C8FD03461946BB
:10035C002E4A7B6842F823102B4A7B6852F82320E4
:10036C0028497B6851F823309A423FD1254A7B6853
:10037C0052F8232025497B6851F823309A4235D115
:10038C00244A7B6852F8232020497B6851F823309B
:10039C009A4214D01D4A7B6852F823201D497B6871
:1003AC0041F82320194A7B6852F82330002B1DD1C9
:1003BC001C4B01221A60194BC8221A6016E0174B0D
:1003CC001B68013B154A1360144B1B68002B0DD1A5
:1003DC000E4A7B6852F82330002B04D10D4A7B68FF
:1003EC00012142F823100D4BC8221A607B6801339F
:1003FC007B607B68022B7FF7DFAE00BF00BF083746
:10040C00BD4680BD0C00002000000020180000201C
:10041C00000801402400002084000020300000204F
:10042C00880000208C00002080B500AF984B1B6822
:10043C00162B40F02281974B1A68974B1B681A4475
:10044C00964B1B689A4208D0944B05221A60914B2C
:10045C0002221A60904B03221A60914B1B68013BDD
:10046C00032B79D801A252F823F000BF89040008AD
:10047C00A504000825050008E504000801F0B6F8FD
:10048C00874B02221A60854B1B68864A13604FF417
:10049C007A7000F01BFF66E001F0D8F8162000F02F
:1004AC007FFC00F035FD804B1B68012B56D14FF4BF
:1004BC007A7000F00BFF7B4B1B68013B794A136091
:1004CC00784B1B68002B49DC734B1B68754A136017
:1004DC00734B04221A6041E001F018F9162000F069
:1004EC005FFC00F015FD704B1B68012B38D14FF4ED
:1004FC007A7000F0EBFE6B4B1B68013B694A136092
:10050C00684B1B68002B2BDC624B1B68654A136025
:10051C00634B03221A6023E001F0C8F8162000F0A8
:10052C003FFC00F0F5FC604B1B68012B1AD14FF41B
:10053C007A7000F0CBFE5B4B1B68013B594A136091
:10054C00584B1B68002B0DDC544B1B68554A136031
:10055C00534B02221A6005E000BF04E000BF02E02A
:10056C0000BF00E000BF514B1B68013B062B00F2A3
:10057C00868001A252F823F0A10500088B06000822
:10058C008B0600088B060008C70500084706000804
:10059C000706000801F042F8162000F001FC00F0FC
:1005AC00B7FC424B07221A603B4B1B68404A136056
:1005BC004FF47A7000F0A6FE68E001F05FF81620A8
:1005CC0000F0EEFB00F0A4FC3A4B1B68012B58D159
:1005DC004FF47A7000F096FE354B1B68013B344AA1
:1005EC001360334B1B68002B4BDC2B4B1B68304AC6
:1005FC0013602E4B07221A6043E001F09FF816207F
:10060C0000F0CEFB00F084FC2A4B1B68012B3AD186
:10061C004FF47A7000F076FE254B1B68013B244AA0
:10062C001360234B1B68002B2DDC1A4B1B68204AD4
:10063C0013601E4B06221A6025E001F04FF81620BD
:10064C0000F0AEFB00F064FC1A4B1B68012B1CD1B4
:10065C004FF47A7000F056FE154B1B68013B144AA0
:10066C001360134B1B68002B0FDC0C4B1B68104AE0
:10067C0013600E4B05221A6007E000BF06E000BFB6
:10068C0004E000BF02E000BF00E000BF80BD00BF7F
:10069C0040000020500000204C00002048000020AA
:1006AC003400002054000020B80000203800002046
:1006BC0058000020C000002080B500AF324B1B68F2
:1006CC00192B3CD0192B55DC172B02D0182B1BD017
:1006DC0050E0282001F090F82B4B1B68184600F0D6
:1006EC005FFB00F015FCFFF73DFD0346002B43D0EC
:1006FC00264B1B68622B03DC244B1B68013300E088
:10070C000123224A136037E0292001F075F81E4BB3
:10071C001B68184600F044FB00F0FAFBFFF722FDC3
:10072C000346002B2AD0194B1B68622B03DC174B9A
:10073C001B68013300E00123144A13601EE02A20D9
:10074C0001F05AF8104B1B68184600F029FB00F01A
:10075C00DFFBFFF707FD0346002B11D00B4B1B688B
:10076C00622B03DC094B1B68013300E00123074AB1
:10077C00136005E000BF04E000BF02E000BF00E032
:10078C0000BF00BF80BD00BF40000020A0000020C3
:10079C0080B500AF564B1B68013B182B00F29D80B7
:1007AC0001A252F823F000BF19080008E70800085E
:1007BC00E7080008E7080008E7080008E708000851
:1007CC00E7080008E7080008E7080008E708000841
:1007DC00E7080008E7080008E7080008E708000831
:1007EC00E7080008E7080008E7080008E708000821
:1007FC00E7080008E7080008E708000821080008D7
:10080C004108000875080008A9080008384B162292
:10081C001A606BE0FFF794FC0346002B5FD0344B5F
:10082C0017221A60334B1B68334A1360334B012277
:10083C001A6054E0FFF784FC0346002B0AD02C4BC3
:10084C0018221A602E4B1B682B4A13602B4B01226B
:10085C001A6046E0FFF798FC0346002B41D0264B6C
:10086C001B68244A13603CE0FFF76AFC0346002B2C
:10087C000AD01F4B19221A60224B1B681E4A1360A8
:10088C001E4B01221A602EE0FFF77EFC0346002B64
:10089C0029D0194B1B681A4A136024E0FFF750FC4F
:1008AC000346002B0FD0124B16221A60164B012256
:1008BC001A60164B01221A60154B01221A600F4B5D
:1008CC0001221A6011E0FFF75FFC0346002B0CD0ED
:1008DC00094B1B680B4A136007E000BF06E000BF22
:1008EC0004E000BF02E000BF00E000BF00BF80BD1D
:1008FC004000002048000020A00000204400002000
:10090C00500000204C000020340000203800002053
:10091C003C00002080B582B000AF78607B68092B6A
:10092C0000F29E8101A252F823F000BF6109000879
:10093C00AF090008FD0900084B0A0008990A0008D5
:10094C00E70A0008350B0008830B0008D10B0008E0
:10095C001F0C000800224FF40051C44801F0D5FAD6
:10096C0000224FF48041C14801F0CFFA00224FF42D
:10097C000041BE4801F0C9FA00220121BC4801F037
:10098C00C4FA00220221BA4801F0BFFA0022042165
:10099C00B74801F0BAFA01220821B54801F0B5FABE
:1009AC005FE101224FF40051B04801F0AEFA002291
:1009BC004FF48041AD4801F0A8FA00224FF40041F9
:1009CC00AA4801F0A2FA01220121A94801F09DFADE
:1009DC0001220221A64801F098FA01220421A44820
:1009EC0001F093FA01220821A14801F08EFA38E1B6
:1009FC0000224FF400519D4801F087FA00224FF479
:100A0C0080419A4801F081FA01224FF40041974845
:100A1C0001F07BFA00220121954801F076FA0022C0
:100A2C000221934801F071FA01220421904801F04F
:100A3C006CFA002208218E4801F067FA11E10022BD
:100A4C004FF40051894801F060FA00224FF48041C4
:100A5C00864801F05AFA00224FF40041834801F015
:100A6C0054FA00220121824801F04FFA012202219E
:100A7C007F4801F04AFA012204217D4801F045FA31
:100A8C00002208217A4801F040FAEAE001224FF4F2
:100A9C000051764801F039FA00224FF48041734836
:100AAC0001F033FA00224FF40041704801F02DFAA6
:100ABC00012201216E4801F028FA012202216C4822
:100ACC0001F023FA00220421694801F01EFA0022E9
:100ADC000821674801F019FAC3E000224FF40051D5
:100AEC00624801F012FA01224FF480415F4801F094
:100AFC000CFA00224FF400415C4801F006FA002287
:100B0C0001215B4801F001FA01220221584801F051
:100B1C00FCF900220421564801F0F7F900220821C3
:100B2C00534801F0F2F99CE000224FF400514F4879
:100B3C0001F0EBF901224FF480414C4801F0E5F94A
:100B4C0000224FF40041494801F0DFF90022012155
:100B5C00474801F0DAF900220221454801F0D5F9A5
:100B6C0000220421424801F0D0F90022082140481B
:100B7C0001F0CBF975E000224FF400513B4801F035
:100B8C00C4F900224FF48041384801F0BEF900222C
:100B9C004FF40041354801F0B8F9012201213448E5
:100BAC0001F0B3F901220221314801F0AEF9012222
:100BBC0004212F4801F0A9F9012208212C4801F049
:100BCC00A4F94EE000224FF40051284801F09DF9A1
:100BDC0000224FF48041254801F097F900224FF490
:100BEC000041224801F091F900220121204801F036
:100BFC008CF9002202211E4801F087F90022042101
:100C0C001B4801F082F900220821194801F07DF9F6
:100C1C0027E000224FF40051144801F076F900222D
:100C2C004FF48041114801F070F900224FF400415B
:100C3C000E4801F06AF9002201210D4801F065F916
:100C4C00012202210A4801F060F90022042108481F
:100C5C0001F05BF900220821054801F056F900E08B
:100C6C0000BF00BF0837BD4680BD00BF0008014073
:100C7C00000C014080B582B000AF78607B68032B1C
:100C8C0000F2848001A252F823F000BFA90C0008E6
:100C9C00E50C0008210D00085D0D000800224FF442
:100CAC0080513D4801F031F901224FF400513A488E
:100CBC0001F02BF901224FF48041374801F025F95E
:100CCC0001224FF40041344801F01FF9334B1B68EB
:100CDC001846FFF71FFE5AE001224FF480512E48B0
:100CEC0001F013F900224FF400512B4801F00DF9DB
:100CFC0001224FF48041284801F007F901224FF4FA
:100D0C000041254801F001F9244B5B681846FFF7B8
:100D1C0001FE3CE001224FF480511F4801F0F5F830
:100D2C0001224FF400511C4801F0EFF800224FF45F
:100D3C008041194801F0E9F801224FF400411648AE
:100D4C0001F0E3F8154B9B681846FFF7E3FD1EE036
:100D5C0001224FF48051104801F0D7F801224FF4D2
:100D6C0000510D4801F0D1F801224FF480410A489E
:100D7C0001F0CBF800224FF40041074801F0C5F810
:100D8C00064BDB681846FFF7C5FD00E000BF00BF4F
:100D9C000837BD4680BD00BF000C0140900000200C
:100DAC0080B483B000AF78607B68163B032B00F2F5
:100DBC009E8001A252F823F0D50D00083B0E0008CE
:100DCC007B0E0008BB0E00084C4B1B684C4A82FB88
:100DDC0003129210DB17D31A4A4A1360474B196857
:100DEC00474B83FB01239A10CB17D21A13469B0057
:100DFC0013445B00CA1A434B5A60434B1B68404A6E
:100E0C0082FB03129210DB17D31A3E4A93603E4BBF
:100E1C0019683B4B83FB01239A10CB17D21A13464C
:100E2C009B0013445B00CA1A364BDA6060E0374B08
:100E3C001B68334A82FB03129210DB17D31A314A18
:100E4C001360324B19682E4B83FB01239A10CB177E
:100E5C00D21A13469B0013445B00CA1A294B5A60E2
:100E6C00284B00229A60274B0222DA6040E0274B85
:100E7C001B68234A82FB03129210DB17D31A214AF8
:100E8C001360224B19681E4B83FB01239A10CB175E
:100E9C00D21A13469B0013445B00CA1A194B5A60B2
:100EAC00184B00229A60174B0322DA6020E0174B94
:100EBC001B68134A82FB03129210DB17D31A114AD8
:100ECC001360124B19680E4B83FB01239A10CB173E
:100EDC00D21A13469B0013445B00CA1A094B5A6082
:100EEC00084B00229A60074B0422DA6000E000BF36
:100EFC0000BF0C37BD4680BC704700BF54000020BB
:100F0C00676666669000002058000020A000002054
:100F1C0080B500AF4A4B1B68013B202B00F285804B
:100F2C0001A252F823F000BFB90F000837100008D7
:100F3C003710000837100008371000083710000869
:100F4C003710000837100008371000083710000859
:100F5C003710000837100008371000083710000849
:100F6C003710000837100008371000083710000839
:100F7C003710000837100008371000083710000829
:100F8C003710000837100008371000083710000819
:100F9C00371000083710000837100008C70F00087A
:100FAC00E30F0008FF0F00081B100008244B1E2243
:100FBC001A60FA2000F0DEF940E00020FFF75AFE3C
:100FCC00204B1B68012B32D1FA2000F0D3F91C4BBB
:100FDC001F221A602BE00120FFF74CFE194B1B68F7
:100FEC00012B26D1FA2000F0C5F9154B20221A60EE
:100FFC001FE00220FFF73EFE124B1B68012B1AD19B
:10100C00FA2000F0B7F90E4B21221A6013E00320EE
:10101C00FFF730FE0B4B1B68012B0ED1FA2000F0B2
:10102C00A9F9074B1E221A6007E000BF06E000BFBB
:10103C0004E000BF02E000BF00E000BF00BF80BDC5
:10104C003C000020D000002080B500AF00F05CFC1C
:10105C0000F024F800F0AAF800F05CF80C4801F05D
:10106C00B1FB4FF4FA7000F015F90A4B1B68012B19
:10107C0007D10221084800F060FF4FF4FA7000F02D
:10108C0009F9FFF785FBFFF7CFF9FFF715FBECE745
:10109C00DC000020A80000200008014080B590B0C2
:1010AC0000AF07F1180328220021184601F03AFF7F
:1010BC003B1D00221A605A609A60DA601A610223A2
:1010CC00BB610123BB621023FB6200237B6307F12E
:1010DC001803184600F04AFF0346002B01D000F01D
:1010EC00D3F80F237B600023BB600023FB6000233D
:1010FC003B6100237B613B1D0021184601F0B6F9D2
:10110C000346002B01D000F0BFF800BF4037BD46AE
:10111C0080BD000080B586B000AF07F10803002247
:10112C001A605A609A60DA603B4600221A605A6074
:10113C001D4B4FF080421A601B4B41F63F725A60B8
:10114C00194B00229A60184B0922DA60164B0022C8
:10115C001A61154B00229A61134801F0E3FA034619
:10116C00002B01D000F090F84FF48053BB6007F1D6
:10117C00080319460C4801F061FC0346002B01D012
:10118C0000F082F800233B6000237B603B4619464D
:10119C00054801F039FE0346002B01D000F074F82D
:1011AC0000BF1837BD4680BDDC00002080B586B07E
:1011BC0000AF07F1080300221A605A609A60DA60E7
:1011CC00284B9B69274A43F004039361254B9B6989
:1011DC0003F004037B607B68224B9B69214A43F03C
:1011EC00080393611F4B9B6903F008033B603B684A
:1011FC0000224FF68E711C4800F087FE00224FF241
:10120C000F011A4800F081FE4FF68E73BB6001236C
:10121C00FB6000233B6102237B6107F10803194645
:10122C00114800F0E1FC7023BB600023FB6001233C
:10123C003B6107F1080319460B4800F0D5FC4FF24F
:10124C000F03BB600123FB6000233B6102237B6126
:10125C0007F108031946054800F0C6FC00BF183713
:10126C00BD4680BD0010024000080140000C01404A
:10127C0080B582B000AF786000F098F8FEF796FF6A
:10128C0000BF0837BD4680BD80B400AF72B600BF4A
:10129C00FEE7000080B483B000AF78607B68084A3A
:1012AC0082FB03129210DB17D31A064A1360064B0B
:1012BC0000221A6000BF0C37BD4680BC704700BFCF
:1012CC0067666666A4000020A800002080B483B086
:1012DC0000AF78607B68084A82FB03129210DB1720
:1012EC00D31A064A1360064B00221A6000BF0C3753
:1012FC00BD4680BC704700BF67666666B4000020C0
:10130C00B800002080B483B000AF78607B68084AD6
:10131C0082FB03129210DB17D31A064A1360064B9A
:10132C0000221A6000BF0C37BD4680BC704700BF5E
:10133C0067666666BC000020C000002080B483B0E5
:10134C0000AF78607B68084A82FB03129210DB17AF
:10135C00D31A064A1360064B00221A6000BF0C37E2
:10136C00BD4680BC704700BF67666666C40000203F
:10137C00C800002080B483B000AF78607B68084A56
:10138C0082FB03129210DB17D31A064A1360064B2A
:10139C0000221A6000BF0C37BD4680BC704700BFEE
:1013AC0067666666CC000020D000002080B400AFD9
:1013BC00394B1B68002B0BDD374B1B68013B364A46
:1013CC001360354B1B68002B02DC344B01221A6076
:1013DC00334B1B68002B0BDD314B1B68013B304A38
:1013EC0013602F4B1B68002B02DC2E4B01221A6062
:1013FC002D4B1B68002B0BDD2B4B1B68013B2A4A2A
:10140C001360294B1B68002B02DC284B01221A604D
:10141C00274B1B68002B0BDD254B1B68013B244A1B
:10142C001360234B1B68002B02DC224B01221A6039
:10143C00214B1B68002B0BDD1F4B1B68013B1E4A0D
:10144C0013601D4B1B68002B02DC1C4B01221A6025
:10145C001B4B1B68002B0BDD194B1B68013B184AFF
:10146C001360174B1B68002B02DC164B01221A6011
:10147C00154B1B68002B0BDD134B1B68013B124AF1
:10148C001360114B1B68002B02DC104B01221A60FD
:10149C0000BFBD4680BC7047A4000020A8000020FF
:1014AC00AC000020B0000020B4000020B8000020E8
:1014BC00BC000020C0000020C4000020C800002098
:1014CC00CC000020D0000020D4000020D800002048
:1014DC0080B485B000AF154B9B69144A43F00103EF
:1014EC009361124B9B6903F00103BB60BB680F4B0C
:1014FC00DB690E4A43F08053D3610C4BDB6903F07C
:10150C0080537B607B680A4B5B68FB60FB6823F055
:10151C00E063FB60FB6843F08063FB60044AFB689C
:10152C00536000BF1437BD4680BC704700100240AA
:10153C000000014080B584B000AF78607B681B6808
:10154C00B3F1804F13D10C4BDB690B4A43F0010311
:10155C00D361094BDB6903F00103FB60FB680022DC
:10156C0000211C2000F009FB1C2000F022FB00BF16
:10157C001037BD4680BD00BF0010024080B400AFE4
:10158C00FEE780B400AFFEE780B400AFFEE780B4A6
:10159C0000AFFEE780B400AFFEE780B400AF00BF41
:1015AC00BD4680BC704780B400AF00BFBD4680BC58
:1015BC00704780B400AF00BFBD4680BC704780B59B
:1015CC0000AF00F0E7F900BF80BD000080B500AFB0
:1015DC00024801F043F900BF80BD00BFDC000020D1
:1015EC0080B400AF00BFBD4680BC704780B500AF73
:1015FC0000228021084800F088FC00224FF4807102
:10160C00054800F082FC00224FF40071024800F003
:10161C007CFC00BF80BD00BF0008014080B500AF5E
:10162C0000224FF48061084800F06FFC00224FF458
:10163C000061054800F069FC00224FF4805102481B
:10164C0000F063FC00BF80BD0008014080B500AF16
:10165C0001228021084800F058FC00224FF48071D0
:10166C00054800F052FC00224FF40071024800F0D3
:10167C004CFC00BF80BD00BF0008014080B500AF2E
:10168C0001224FF48061084800F03FFC00224FF427
:10169C000061054800F039FC00224FF480510248EB
:1016AC0000F033FC00BF80BD0008014080B500AFE6
:1016BC0000228021084800F028FC01224FF48071A0
:1016CC00054800F022FC00224FF40071024800F0A3
:1016DC001CFC00BF80BD00BF0008014080B500AFFE
:1016EC0000224FF48061084800F00FFC01224FF4F7
:1016FC000061054800F009FC00224FF480510248BB
:10170C0000F003FC00BF80BD0008014080B500AFB5
:10171C0000228021084800F0F8FB00224FF4807171
:10172C00054800F0F2FB01224FF40071024800F072
:10173C00ECFB00BF80BD00BF0008014080B500AFCE
:10174C0000224FF48061084800F0DFFB00224FF4C8
:10175C000061054800F0D9FB01224FF4805102488A
:10176C0000F0D3FB00BF80BD0008014080B500AF86
:10177C008021024800F0E1FB00BF80BD0008014061
:10178C0080B500AF4FF48061024800F0D6FB00BF7B
:10179C0080BD00BF0008014080B500AF4FF48071E0
:1017AC00024800F0CAFB00BF80BD00BF000801402A
:1017BC0080B500AF4FF40071024800F0BEFB00BFD3
:1017CC0080BD00BF0008014080B500AF4FF4006140
:1017DC00024800F0B2FB00BF80BD00BF0008014012
:1017EC0080B500AF4FF48051024800F0A6FB00BF5B
:1017FC0080BD00BF0008014080B582B000AF7860AA
:10180C002C4B1B682A2B3CD02A2B46DC292B2CD0AA
:10181C00292B42DC012B02D0282B1AD03DE0FFF7FC
:10182C00E5FEFFF7FBFEFA20FFF788FD7B68282B0F
:10183C0002D1204B28221A607B68292B02D11D4B28
:10184C0029221A607B682A2B29D11A4B2A221A606A
:10185C0025E0194B1B68012B23D1FA20FFF76EFDF5
:10186C00FFF784FFFFF78CFF1BE0134B1B68012B6A
:10187C0019D1FA20FFF762FDFFF78EFFFFF7A4FFE7
:10188C0011E00D4B1B68012B0FD1FA20FFF756FD11
:10189C00FFF78EFFFFF7A4FF07E000BF06E000BFD5
:1018AC0004E000BF02E000BF00E000BF00BF08374B
:1018BC00BD4680BD44000020C8000020FFF790FE0C
:1018CC000B480C490C4A002302E0D458C450043392
:1018DC00C4188C42F9D3094A094C002301E0136067
:1018EC000432A242FBD301F0F9FAFFF7ADFB7047CB
:1018FC000000002068000020842F000868000020F1
:10190C0028010020FEE7000080B500AF084B1B68E3
:10191C00074A43F010031360032000F023F90F2053
:10192C0000F008F8FFF7D4FD0023184680BD00BF77
:10193C000020024080B582B000AF7860124B1A686C
:10194C00124B1B7819464FF47A73B3FBF1F3B2FBCD
:10195C00F3F3184600F03BF90346002B01D00123AA
:10196C000EE07B680F2B0AD8002279684FF0FF300D
:10197C0000F003F9064A7B681360002300E00123A2
:10198C0018460837BD4680BD5C000020640000206E
:10199C006000002080B400AF054B1B781A46054B45
:1019AC001B681344034A136000BFBD4680BC7047DC
:1019BC00640000202401002080B400AF024B1B689F
:1019CC001846BD4680BC70472401002080B485B009
:1019DC0000AF78607B6803F00703FB600C4BDB689F
:1019EC00BB60BA684FF6FF031340BB60FB681A027A
:1019FC00BB68134343F0BF6343F40033BB60044A3A
:101A0C00BB68D36000BF1437BD4680BC704700BFB5
:101A1C0000ED00E080B400AF044BDB681B0A03F060
:101A2C0007031846BD4680BC704700BF00ED00E0C0
:101A3C0080B483B000AF0346FB7197F90730002BDD
:101A4C000BDBFB7903F01F02064997F907305B09A2
:101A5C00012000FA02F241F8232000BF0C37BD46EA
:101A6C0080BC704700E100E080B483B000AF034657
:101A7C003960FB7197F90730002B0ADB3B68DAB24F
:101A8C000C4997F907301201D2B20B4483F80023AA
:101A9C000AE03B68DAB20849FB7903F00F03043B18
:101AAC001201D2B20B441A7600BF0C37BD4680BC73
:101ABC00704700BF00E100E000ED00E080B489B0A9
:101ACC0000AFF860B9607A60FB6803F00703FB6154
:101ADC00FB69C3F10703042B28BF0423BB61FB691B
:101AEC000433062B02D9FB69033B00E000237B6126
:101AFC004FF0FF32BB6902FA03F3DA43BB681A40BA
:101B0C007B699A404FF0FF317B6901FA03F3D943AB
:101B1C007B680B40134318462437BD4680BC704786
:101B2C0080B582B000AF78607B68013BB3F1807FF9
:101B3C0001D301230FE00A4A7B68013B53600F215C
:101B4C004FF0FF30FFF790FF054B00229A60044BDB
:101B5C0007221A60002318460837BD4680BD00BF17
:101B6C0010E000E080B582B000AF78607868FFF7D5
:101B7C002DFF00BF0837BD4680BD80B586B000AFD5
:101B8C000346B9607A60FB7300237B61FFF742FF69
:101B9C0078617A68B9687869FFF790FF024697F91F
:101BAC000F3011461846FFF75FFF00BF1837BD46D0
:101BBC0080BD80B582B000AF0346FB7197F907304A
:101BCC001846FFF735FF00BF0837BD4680BD80B50E
:101BDC0082B000AF78607868FFF7A2FF0346184622
:101BEC000837BD4680BD000080B48BB000AF786074
:101BFC00396000237B6200233B6248E101227B6A4F
:101C0C0002FA03F3FB613B681B68FA691340BB6182
:101C1C00BA69FB699A4240F037813B685B68A34A1A
:101C2C0093425ED0A14A934275D8A14A934258D0B0
:101C3C009F4A93426FD89F4A934252D09D4A9342F7
:101C4C0069D89D4A93424CD09B4A934263D89B4A95
:101C5C00934246D0994A93425DD8122B2AD8122B24
:101C6C0059D801A252F823F0EF1C0008C91C000837
:101C7C00DB1C00081D1D0008231D0008231D000887
:101C8C00231D0008231D0008231D0008231D000828
:101C9C00231D0008231D0008231D0008231D000818
:101CAC00231D0008231D0008231D0008D11C00085B
:101CBC00E51C0008824A934213D02CE03B68DB6899
:101CCC003B6229E03B68DB6804333B6224E03B6801
:101CDC00DB6808333B621FE03B68DB680C333B621C
:101CEC001AE03B689B68002B02D104233B6213E093
:101CFC003B689B68012B05D108233B627B68FA6922
:101D0C001A6109E008233B627B68FA695A6103E0B7
:101D1C0000233B6200E000BFBB69FF2B01D87B684E
:101D2C0001E07B6804337B61BB69FF2B02D87B6AC3
:101D3C009B0002E07B6A083B9B003B617B691A6855
:101D4C000F213B6901FA03F3DB431A40396A3B6903
:101D5C0001FA03F31A437B691A603B685B6803F072
:101D6C008053002B00F09080564B9B69554A43F0F2
:101D7C0001039361534B9B6903F00103BB60BB6888
:101D8C00514A7B6A9B08023352F82330FB607B6A12
:101D9C0003F003039B000F2202FA03F3DB43FA6800
:101DAC001340FB607B68494A93420DD07B68484ADC
:101DBC00934207D07B68474A934201D1022304E047
:101DCC00032302E0012300E000237A6A02F00302FD
:101DDC0092009340FA681343FB603B497B6A9B0873
:101DEC000233FA6841F823203B685B6803F48013E4
:101DFC00002B06D0384B9A683749BB6913438B606C
:101E0C0006E0354B9A68BB69DB43334913408B6062
:101E1C003B685B6803F40013002B06D02E4BDA688A
:101E2C002D49BB691343CB6006E02B4BDA68BB69C9
:101E3C00DB4329491340CB603B685B6803F40033F8
:101E4C00002B06D0244B5A682349BB6913434B60C3
:101E5C0006E0214B5A68BB69DB431F4913404B60BA
:101E6C003B685B6803F48033002B06D01A4B1A686E
:101E7C001949BB6913430B6006E0174B1A68BB6921
:101E8C00DB43154913400B607B6A01337B623B6873
:101E9C001A687B6A22FA03F3002B7FF4AFAE00BF03
:101EAC0000BF2C37BD4680BC704700BF000032100D
:101EBC000000311000002210000021100000121050
:101ECC000000111000100240000001400008014009
:101EDC00000C0140001001400004014080B485B0AA
:101EEC0000AF78600B467B807B689A687B881340D8
:101EFC00002B02D00123FB7301E00023FB73FB7B5F
:101F0C0018461437BD4680BC704780B483B000AF10
:101F1C0078600B467B8013467B707B78002B03D05C
:101F2C007A887B681A6103E07B881A047B681A61E3
:101F3C0000BF0C37BD4680BC704780B485B000AF85
:101F4C0078600B467B807B68DB68FB607A88FB687B
:101F5C0013401A04FB68D9437B880B401A437B68F7
:101F6C001A6100BF1437BD4680BC704780B586B07F
:101F7C0000AF78607B68002B01D101236CE27B6899
:101F8C001B6803F00103002B00F08780924B5B6809
:101F9C0003F00C03042B0CD08F4B5B6803F00C0389
:101FAC00082B12D18C4B5B6803F48033B3F5803F64
:101FBC000BD1894B1B6803F40033002B6CD07B686E
:101FCC005B68002B68D1012346E27B685B68B3F544
:101FDC00803F06D1804B1B687F4A43F480331360EB
:101FEC002EE07B685B68002B0CD17B4B1B687A4A1C
:101FFC0023F480331360784B1B68774A23F48023D7
:10200C0013601DE07B685B68B3F5A02F0CD1724B9D
:10201C001B68714A43F4802313606F4B1B686E4A34
:10202C0043F4803313600BE06B4B1B686A4A23F458
:10203C0080331360684B1B68674A23F4802313605A
:10204C007B685B68002B13D0FFF7B6FC386108E0A7
:10205C00FFF7B2FC02463B69D31A642B01D9032368
:10206C00FAE15D4B1B6803F40033002BF0D014E055
:10207C00FFF7A2FC386108E0FFF79EFC02463B69C3
:10208C00D31A642B01D90323E6E1534B1B6803F4E9
:10209C000033002BF0D100E000BF7B681B6803F01D
:1020AC000203002B63D04C4B5B6803F00C03002B3A
:1020BC000BD0494B5B6803F00C03082B1CD1464B2F
:1020CC005B6803F48033002B16D1434B1B6803F081
:1020DC000203002B05D07B681B69012B01D0012367
:1020EC00BAE13D4B1B6823F0F8027B685B69DB00AF
:1020FC00394913430B603AE07B681B69002B20D0F5
:10210C00364B01221A60FFF757FC386108E0FFF7E5
:10211C0053FC02463B69D31A022B01D903239BE1E2
:10212C002D4B1B6803F00203002BF0D02A4B1B68CD
:10213C0023F0F8027B685B69DB00274913430B60D3
:10214C0015E0264B00221A60FFF736FC386108E0D8
:10215C00FFF732FC02463B69D31A022B01D9032349
:10216C007AE11D4B1B6803F00203002BF0D17B6856
:10217C001B6803F00803002B3AD07B689B69002B8B
:10218C0019D0174B01221A60FFF716FC386108E0D2
:10219C00FFF712FC02463B69D31A022B01D9032329
:1021AC005AE10D4B5B6A03F00203002BF0D00120C7
:1021BC0000F09AFA1CE00A4B00221A60FFF7FCFBB5
:1021CC0038610FE0FFF7F8FB02463B69D31A022B8C
:1021DC0008D9032340E100BF001002400000424236
:1021EC00800442429E4B5B6A03F00203002BE9D150
:1021FC007B681B6803F00403002B00F0A68000230F
:10220C00FB75974BDB6903F08053002B0DD1944B7E
:10221C00DB69934A43F08053D361914BDB6903F044
:10222C008053BB60BB680123FB758E4B1B6803F4AA
:10223C008073002B18D18B4B1B688A4A43F4807334
:10224C001360FFF7B9FB386108E0FFF7B5FB0246F6
:10225C003B69D31A642B01D90323FDE0814B1B6826
:10226C0003F48073002BF0D07B68DB68012B06D164
:10227C007B4B1B6A7A4A43F0010313622DE07B68A7
:10228C00DB68002B0CD1764B1B6A754A23F00103DB
:10229C001362734B1B6A724A23F0040313621CE033
:1022AC007B68DB68052B0CD16D4B1B6A6C4A43F0C9
:1022BC00040313626A4B1B6A694A43F001031362FD
:1022CC000BE0674B1B6A664A23F001031362644BF5
:1022DC001B6A634A23F0040313627B68DB68002BE0
:1022EC0015D0FFF769FB38610AE0FFF765FB024682
:1022FC003B69D31A41F28832934201D90323ABE0F4
:10230C00574B1B6A03F00203002BEED014E0FFF7CF
:10231C0053FB38610AE0FFF74FFB02463B69D31AC7
:10232C0041F28832934201D9032395E04C4B1B6A4E
:10233C0003F00203002BEED1FB7D012B05D1484BA2
:10234C00DB69474A23F08053D3617B68DB69002B40
:10235C0000F08180424B5B6803F00C03082B61D0CA
:10236C007B68DB69022B46D13F4B00221A60FFF7DA
:10237C0023FB386108E0FFF71FFB02463B69D31AC9
:10238C00022B01D9032367E0354B1B6803F0007364
:10239C00002BF0D17B681B6AB3F5803F08D1304B22
:1023AC005B6823F400327B689B682D4913434B60B8
:1023BC002B4B5B6823F474127B68196A7B685B6A2D
:1023CC000B43274913434B60274B01221A60FFF73D
:1023DC00F3FA386108E0FFF7EFFA02463B69D31ACB
:1023EC00022B01D9032337E01D4B1B6803F000734C
:1023FC00002BF0D02FE01C4B00221A60FFF7DCFA08
:10240C00386108E0FFF7D8FA02463B69D31A022B71
:10241C0001D9032320E0124B1B6803F00073002B3F
:10242C00F0D118E07B68DB69012B01D1012313E0AB
:10243C000B4B5B68FB60FB6803F480327B681B6AA8
:10244C009A4206D1FB6803F470127B685B6A9A426D
:10245C0001D0012300E0002318461837BD4680BD8B
:10246C0000100240007000406000424280B584B011
:10247C0000AF786039607B68002B01D10123D0E07C
:10248C006A4B1B6803F007033A689A4210D9674BF2
:10249C001B6823F0070265493B6813430B60634BD1
:1024AC001B6803F007033A689A4201D00123B8E095
:1024BC007B681B6803F00203002B20D07B681B6831
:1024CC0003F00403002B05D0594B5B68584A43F4C6
:1024DC00E06353607B681B6803F00803002B05D096
:1024EC00534B5B68524A43F460535360504B5B68E8
:1024FC0023F0F0027B689B684D4913434B607B686B
:10250C001B6803F00103002B40D07B685B68012B38
:10251C0007D1474B1B6803F40033002B15D1012363
:10252C007FE07B685B68022B07D1414B1B6803F093
:10253C000073002B09D1012373E03D4B1B6803F0A2
:10254C000203002B01D101236BE0394B5B6823F0B4
:10255C0003027B685B68364913434B60FFF72CFA28
:10256C00F8600AE0FFF728FA0246FB68D31A41F23A
:10257C008832934201D9032353E02D4B5B6803F05F
:10258C000C027B685B689B009A42EBD1274B1B6863
:10259C0003F007033A689A4210D2244B1B6823F0CD
:1025AC00070222493B6813430B60204B1B6803F066
:1025BC0007033A689A4201D0012332E07B681B681A
:1025CC0003F00403002B08D0194B5B6823F4E06282
:1025DC007B68DB68164913434B607B681B6803F010
:1025EC000803002B09D0124B5B6823F460527B6804
:1025FC001B69DB000E4913434B6000F021F80246C7
:10260C000B4B5B681B0903F00F030A49CB5C22FAE6
:10261C0003F3094A1360094B1B681846FFF78AF944
:10262C00002318461037BD4680BD00BF0020024075
:10263C0000100240582F00085C00002060000020B1
:10264C0080B487B000AF0023FB600023BB60002385
:10265C007B6100237B6000233B611E4B5B68FB604E
:10266C00FB6803F00C03042B02D0082B03D027E0EB
:10267C00194B3B6127E0FB689B0C03F00F03174AD7
:10268C00D35C7B60FB6803F48033002B10D0114BC0
:10269C005B685B0C03F00103114AD35CBB607B6885
:1026AC000D4A02FB03F2BB68B2FBF3F37B6104E05F
:1026BC007B680C4A02FB03F37B617B693B6102E0A4
:1026CC00054B3B6100BF3B6918461C37BD4680BCBF
:1026DC00704700BF0010024000127A00682F0008FB
:1026EC00782F000800093D0080B485B000AF7860F9
:1026FC000A4B1B680A4AA2FB03235B0A7A6802FB9B
:10270C0003F3FB6000BFFB685A1EFA60002BF9D183
:10271C0000BF00BF1437BD4680BC70475C00002072
:10272C00D34D621080B582B000AF78607B68002B0F
:10273C0001D1012341E07B6893F83D30DBB2002BE3
:10274C0006D17B68002283F83C207868FEF7F2FE05
:10275C007B68022283F83D207B681A687B6804330F
:10276C001946104600F056FA7B68012283F8462081
:10277C007B68012283F83E207B68012283F83F208E
:10278C007B68012283F840207B68012283F841207A
:10279C007B68012283F842207B68012283F8432066
:1027AC007B68012283F844207B68012283F8452052
:1027BC007B68012283F83D20002318460837BD466C
:1027CC0080BD000080B485B000AF78607B6893F862
:1027DC003D30DBB2012B01D0012335E07B680222B6
:1027EC0083F83D207B681B68DA687B681B6842F0C5
:1027FC000102DA607B681B68164A934209D07B6839
:10280C001B68B3F1804F04D07B681B68124A93425B
:10281C0011D17B681B689B6803F00703FB60FB68A6
:10282C00062B10D07B681B681A687B681B6842F00B
:10283C0001021A6007E07B681B681A687B681B68DA
:10284C0042F001021A60002318461437BD4680BCC2
:10285C00704700BF002C01400004004080B584B0DC
:10286C0000AF78607B681B68DB68FB607B681B686B
:10287C001B69BB60BB6803F00203002B20D0FB6814
:10288C0003F00203002B1BD07B681B686FF0020265
:10289C001A617B6801221A777B681B689B6903F0BD
:1028AC000303002B03D0786800F098F905E07868F2
:1028BC0000F08BF9786800F09AF97B6800221A779F
:1028CC00BB6803F00403002B20D0FB6803F0040367
:1028DC00002B1BD07B681B686FF004021A617B68AD
:1028EC0002221A777B681B689B6903F44073002BE8
:1028FC0003D0786800F072F905E0786800F065F9AB
:10290C00786800F074F97B6800221A77BB6803F0D2
:10291C000803002B20D0FB6803F00803002B1BD00E
:10292C007B681B686FF008021A617B6804221A77B7
:10293C007B681B68DB6903F00303002B03D078680A
:10294C0000F04CF905E0786800F03FF9786800F089
:10295C004EF97B6800221A77BB6803F01003002B3A
:10296C0020D0FB6803F01003002B1BD07B681B6886
:10297C006FF010021A617B6808221A777B681B685B
:10298C00DB6903F44073002B03D0786800F026F960
:10299C0005E0786800F019F9786800F028F97B6890
:1029AC0000221A77BB6803F00103002B0CD0FB68E4
:1029BC0003F00103002B07D07B681B686FF001024A
:1029CC001A617868FEF754FCBB6803F08003002B97
:1029DC000CD0FB6803F08003002B07D07B681B68CE
:1029EC006FF080021A61786800F06FFABB6803F030
:1029FC004003002B0CD0FB6803F04003002B07D0E6
:102A0C007B681B686FF040021A61786800F0F8F878
:102A1C00BB6803F02003002B0CD0FB6803F02003F1
:102A2C00002B07D07B681B686FF020021A61786856
:102A3C0000F042FA00BF1037BD4680BD80B584B0AF
:102A4C0000AF786039600023FB737B6893F83C30EF
:102A5C00012B01D10223B4E07B68012283F83C20D6
:102A6C007B68022283F83D207B681B689B68BB60F7
:102A7C00BB6823F07703BB60BB6823F47F43BB6068
:102A8C007B681B68BA689A603B681B68B3F5005F8B
:102A9C003ED0B3F5005F00F28780B3F5805F00F0A5
:102AAC008680B3F5805F7FD8702B1AD0702B7BD8C3
:102ABC00602B50D0602B77D8502B3CD0502B73D838
:102ACC00402B58D0402B6FD8302B64D0302B6BD888
:102ADC00202B60D0202B67D8002B5CD0102B5AD029
:102AEC0062E07B6818683B6899683B685A683B6889
:102AFC00DB6800F06AF97B681B689B68BB60BB688D
:102B0C0043F07703BB607B681B68BA689A604FE040
:102B1C007B6818683B6899683B685A683B68DB6857
:102B2C0000F053F97B681B689A687B681B6842F459
:102B3C0080429A603CE07B6818683B6859683B6847
:102B4C00DB681A4600F0CAF87B681B6850211846EF
:102B5C0000F021F92CE07B6818683B6859683B68E9
:102B6C00DB681A4600F0E8F87B681B6860211846A1
:102B7C0000F011F91CE07B6818683B6859683B68E9
:102B8C00DB681A4600F0AAF87B681B6840211846DF
:102B9C0000F001F90CE07B681A683B681B68194669
:102BAC00104600F0F8F803E00123FB7300E000BFCF
:102BBC007B68012283F83D207B68002283F83C204F
:102BCC00FB7B18461037BD4680BD80B483B000AF88
:102BDC00786000BF0C37BD4680BC704780B483B0B2
:102BEC0000AF786000BF0C37BD4680BC704780B426
:102BFC0083B000AF786000BF0C37BD4680BC704717
:102C0C0080B483B000AF786000BF0C37BD4680BC89
:102C1C007047000080B485B000AF786039607B6885
:102C2C001B68FB607B682B4A934207D07B68B3F12F
:102C3C00804F03D07B68284A934208D1FB6823F06D
:102C4C007003FB603B685B68FA681343FB607B684E
:102C5C00204A934207D07B68B3F1804F03D07B6846
:102C6C001D4A934208D1FB6823F44073FB603B6818
:102C7C00DB68FA681343FB60FB6823F080023B6857
:102C8C005B691343FB607B68FA681A603B689A685F
:102C9C007B68DA623B681A687B689A627B680D4ACB
:102CAC00934203D13B681A697B681A637B680122E3
:102CBC005A617B681B6903F00103002B05D07B680C
:102CCC001B6923F001027B681A6100BF1437BD46F3
:102CDC0080BC7047002C01400004004080B487B0D9
:102CEC0000AFF860B9607A60FB681B6A7B61FB68B7
:102CFC001B6A23F00102FB681A62FB689B693B614B
:102D0C003B6923F0F0033B617B681B013A69134379
:102D1C003B617B6923F00A037B617A69BB681343CF
:102D2C007B61FB683A699A61FB687A691A6200BF39
:102D3C001C37BD4680BC704780B487B000AFF860CC
:102D4C00B9607A60FB681B6A7B61FB681B6A23F0C5
:102D5C001002FB681A62FB689B693B613B6923F4B8
:102D6C0070433B617B681B033A6913433B617B698E
:102D7C0023F0A0037B61BB681B017A6913437B6161
:102D8C00FB683A699A61FB687A691A6200BF1C3762
:102D9C00BD4680BC704780B485B000AF78603960A8
:102DAC007B689B68FB60FB6823F07003FB603A68F0
:102DBC00FB68134343F00703FB607B68FA689A6077
:102DCC0000BF1437BD4680BC704780B487B000AFDD
:102DDC00F860B9607A603B60FB689B687B617B69DB
:102DEC0023F47F437B613B681A027B681A43BB6800
:102DFC0013437A6913437B61FB687A699A6000BF5D
:102E0C001C37BD4680BC704780B485B000AF78607D
:102E1C0039607B6893F83C30012B01D1022341E0EF
:102E2C007B68012283F83C207B68022283F83D20DA
:102E3C007B681B685B68FB607B681B689B68BB607E
:102E4C00FB6823F07003FB603B681B68FA68134354
:102E5C00FB607B681B68FA685A607B681B68144AC5
:102E6C00934209D07B681B68B3F1804F04D07B6818
:102E7C001B68104A93420CD1BB6823F08003BB60E3
:102E8C003B685B68BA681343BB607B681B68BA68B5
:102E9C009A607B68012283F83D207B68002283F8CE
:102EAC003C20002318461437BD4680BC704700BF39
:102EBC00002C01400004004080B483B000AF786067
:102ECC0000BF0C37BD4680BC704780B483B000AFE8
:102EDC00786000BF0C37BD4680BC704770B50026CB
:102EEC000C4D0D4C641BA410A64209D100F022F825
:102EFC0000260A4D0A4C641BA410A64205D170BDD5
:102F0C0055F8043B98470136EEE755F8043B9847D3
:102F1C000136F2E77C2F00087C2F00087C2F00087C
:102F2C00802F000803460244934200D1704703F8F7
:102F3C00011BF9E7F8B500BFF8BC08BC9E4670470A
:0C2F4C00F8B500BFF8BC08BC9E467047FA
:102F58000000000000000000010203040607080941
:102F680002030405060708090A0B0C0D0E0F1010C2
:042F78000102000052
:042F7C003101000817
:042F80000D01000837
:102F8400010000000000000000000000010000003B
:102F9400000000000000000001000000000000002C
:102FA400000000000100000000000000000000001C
:102FB400C800000001000000010000000100000042
:102FC40001000000010000000500000003000000F3
:102FD40002000000050000000300000000127A0057
:082FE4001000000001000000D4
:04000005080018C90E
:00000001FF
